{
  "abi": [
    {
      "inputs": [
        {
          "internalType": "uint256",
          "name": "val",
          "type": "uint256"
        },
        {
          "internalType": "address",
          "name": "logisticsP",
          "type": "address"
        }
      ],
      "name": "createRequest",
      "outputs": [],
      "stateMutability": "nonpayable",
      "type": "function"
    },
    {
      "inputs": [
        {
          "internalType": "uint256",
          "name": "",
          "type": "uint256"
        }
      ],
      "name": "deployedRequests",
      "outputs": [
        {
          "internalType": "contract ReceivePayment",
          "name": "",
          "type": "address"
        }
      ],
      "stateMutability": "view",
      "type": "function"
    },
    {
      "inputs": [],
      "name": "getDeployedRequests",
      "outputs": [
        {
          "internalType": "contract ReceivePayment[]",
          "name": "",
          "type": "address[]"
        }
      ],
      "stateMutability": "view",
      "type": "function"
    }
  ],
  "devdoc": {
    "kind": "dev",
    "methods": {},
    "version": 1
  },
  "evm": {
    "assembly": "    /* \"ReceivePayment.sol\":61:458  contract RequestFactory {... */\n  mstore(0x40, 0x80)\n  callvalue\n  dup1\n  iszero\n  tag_1\n  jumpi\n  0x00\n  dup1\n  revert\ntag_1:\n  pop\n  dataSize(sub_0)\n  dup1\n  dataOffset(sub_0)\n  0x00\n  codecopy\n  0x00\n  return\nstop\n\nsub_0: assembly {\n        /* \"ReceivePayment.sol\":61:458  contract RequestFactory {... */\n      mstore(0x40, 0x80)\n      callvalue\n      dup1\n      iszero\n      tag_1\n      jumpi\n      0x00\n      dup1\n      revert\n    tag_1:\n      pop\n      jumpi(tag_2, lt(calldatasize, 0x04))\n      shr(0xe0, calldataload(0x00))\n      dup1\n      0x2f51e58c\n      eq\n      tag_3\n      jumpi\n      dup1\n      0x4005ec3d\n      eq\n      tag_4\n      jumpi\n      dup1\n      0xf832f94a\n      eq\n      tag_5\n      jumpi\n    tag_2:\n      0x00\n      dup1\n      revert\n        /* \"ReceivePayment.sol\":138:333  function createRequest(uint val, address logisticsP) public {... */\n    tag_3:\n      tag_6\n      0x04\n      dup1\n      calldatasize\n      sub\n      dup2\n      add\n      swap1\n      tag_7\n      swap2\n      swap1\n      tag_8\n      jump\t// in\n    tag_7:\n      tag_9\n      jump\t// in\n    tag_6:\n      stop\n        /* \"ReceivePayment.sol\":339:456  function getDeployedRequests() public view returns (ReceivePayment[] memory) {... */\n    tag_4:\n      tag_10\n      tag_11\n      jump\t// in\n    tag_10:\n      mload(0x40)\n      tag_12\n      swap2\n      swap1\n      tag_13\n      jump\t// in\n    tag_12:\n      mload(0x40)\n      dup1\n      swap2\n      sub\n      swap1\n      return\n        /* \"ReceivePayment.sol\":91:131  ReceivePayment[] public deployedRequests */\n    tag_5:\n      tag_14\n      0x04\n      dup1\n      calldatasize\n      sub\n      dup2\n      add\n      swap1\n      tag_15\n      swap2\n      swap1\n      tag_16\n      jump\t// in\n    tag_15:\n      tag_17\n      jump\t// in\n    tag_14:\n      mload(0x40)\n      tag_18\n      swap2\n      swap1\n      tag_19\n      jump\t// in\n    tag_18:\n      mload(0x40)\n      dup1\n      swap2\n      sub\n      swap1\n      return\n        /* \"ReceivePayment.sol\":138:333  function createRequest(uint val, address logisticsP) public {... */\n    tag_9:\n        /* \"ReceivePayment.sol\":208:233  ReceivePayment newRequest */\n      0x00\n        /* \"ReceivePayment.sol\":255:258  val */\n      dup3\n        /* \"ReceivePayment.sol\":260:270  msg.sender */\n      caller\n        /* \"ReceivePayment.sol\":272:282  logisticsP */\n      dup4\n        /* \"ReceivePayment.sol\":236:283  new ReceivePayment(val, msg.sender, logisticsP) */\n      mload(0x40)\n      tag_21\n      swap1\n      tag_22\n      jump\t// in\n    tag_21:\n      tag_23\n      swap4\n      swap3\n      swap2\n      swap1\n      tag_24\n      jump\t// in\n    tag_23:\n      mload(0x40)\n      dup1\n      swap2\n      sub\n      swap1\n      0x00\n      create\n      dup1\n      iszero\n      dup1\n      iszero\n      tag_25\n      jumpi\n      returndatasize\n      0x00\n      dup1\n      returndatacopy\n      revert(0x00, returndatasize)\n    tag_25:\n      pop\n        /* \"ReceivePayment.sol\":208:283  ReceivePayment newRequest = new ReceivePayment(val, msg.sender, logisticsP) */\n      swap1\n      pop\n        /* \"ReceivePayment.sol\":293:309  deployedRequests */\n      0x00\n        /* \"ReceivePayment.sol\":315:325  newRequest */\n      dup2\n        /* \"ReceivePayment.sol\":293:326  deployedRequests.push(newRequest) */\n      swap1\n      dup1\n      0x01\n      dup2\n      sload\n      add\n      dup1\n      dup3\n      sstore\n      dup1\n      swap2\n      pop\n      pop\n      0x01\n      swap1\n      sub\n      swap1\n      0x00\n      mstore\n      keccak256(0x00, 0x20)\n      add\n      0x00\n      swap1\n      swap2\n      swap1\n      swap2\n      swap1\n      swap2\n      0x0100\n      exp\n      dup2\n      sload\n      dup2\n      0xffffffffffffffffffffffffffffffffffffffff\n      mul\n      not\n      and\n      swap1\n      dup4\n      0xffffffffffffffffffffffffffffffffffffffff\n      and\n      mul\n      or\n      swap1\n      sstore\n      pop\n        /* \"ReceivePayment.sol\":198:333  {... */\n      pop\n        /* \"ReceivePayment.sol\":138:333  function createRequest(uint val, address logisticsP) public {... */\n      pop\n      pop\n      jump\t// out\n        /* \"ReceivePayment.sol\":339:456  function getDeployedRequests() public view returns (ReceivePayment[] memory) {... */\n    tag_11:\n        /* \"ReceivePayment.sol\":391:414  ReceivePayment[] memory */\n      0x60\n        /* \"ReceivePayment.sol\":433:449  deployedRequests */\n      0x00\n        /* \"ReceivePayment.sol\":426:449  return deployedRequests */\n      dup1\n      sload\n      dup1\n      0x20\n      mul\n      0x20\n      add\n      mload(0x40)\n      swap1\n      dup2\n      add\n      0x40\n      mstore\n      dup1\n      swap3\n      swap2\n      swap1\n      dup2\n      dup2\n      mstore\n      0x20\n      add\n      dup3\n      dup1\n      sload\n      dup1\n      iszero\n      tag_28\n      jumpi\n      0x20\n      mul\n      dup3\n      add\n      swap2\n      swap1\n      0x00\n      mstore\n      keccak256(0x00, 0x20)\n      swap1\n    tag_29:\n      dup2\n      0x00\n      swap1\n      sload\n      swap1\n      0x0100\n      exp\n      swap1\n      div\n      0xffffffffffffffffffffffffffffffffffffffff\n      and\n      0xffffffffffffffffffffffffffffffffffffffff\n      and\n      dup2\n      mstore\n      0x20\n      add\n      swap1\n      0x01\n      add\n      swap1\n      dup1\n      dup4\n      gt\n      tag_29\n      jumpi\n    tag_28:\n      pop\n      pop\n      pop\n      pop\n      pop\n      swap1\n      pop\n        /* \"ReceivePayment.sol\":339:456  function getDeployedRequests() public view returns (ReceivePayment[] memory) {... */\n      swap1\n      jump\t// out\n        /* \"ReceivePayment.sol\":91:131  ReceivePayment[] public deployedRequests */\n    tag_17:\n      0x00\n      dup2\n      dup2\n      sload\n      dup2\n      lt\n      tag_30\n      jumpi\n      0x00\n      dup1\n      revert\n    tag_30:\n      swap1\n      0x00\n      mstore\n      keccak256(0x00, 0x20)\n      add\n      0x00\n      swap2\n      pop\n      sload\n      swap1\n      0x0100\n      exp\n      swap1\n      div\n      0xffffffffffffffffffffffffffffffffffffffff\n      and\n      dup2\n      jump\t// out\n    tag_22:\n      dataSize(sub_0)\n      dup1\n      dataOffset(sub_0)\n      dup4\n      codecopy\n      add\n      swap1\n      jump\t// out\n        /* \"#utility.yul\":7:146   */\n    tag_33:\n        /* \"#utility.yul\":53:58   */\n      0x00\n        /* \"#utility.yul\":91:97   */\n      dup2\n        /* \"#utility.yul\":78:98   */\n      calldataload\n        /* \"#utility.yul\":69:98   */\n      swap1\n      pop\n        /* \"#utility.yul\":107:140   */\n      tag_35\n        /* \"#utility.yul\":134:139   */\n      dup2\n        /* \"#utility.yul\":107:140   */\n      tag_36\n      jump\t// in\n    tag_35:\n        /* \"#utility.yul\":7:146   */\n      swap3\n      swap2\n      pop\n      pop\n      jump\t// out\n        /* \"#utility.yul\":152:291   */\n    tag_37:\n        /* \"#utility.yul\":198:203   */\n      0x00\n        /* \"#utility.yul\":236:242   */\n      dup2\n        /* \"#utility.yul\":223:243   */\n      calldataload\n        /* \"#utility.yul\":214:243   */\n      swap1\n      pop\n        /* \"#utility.yul\":252:285   */\n      tag_39\n        /* \"#utility.yul\":279:284   */\n      dup2\n        /* \"#utility.yul\":252:285   */\n      tag_40\n      jump\t// in\n    tag_39:\n        /* \"#utility.yul\":152:291   */\n      swap3\n      swap2\n      pop\n      pop\n      jump\t// out\n        /* \"#utility.yul\":297:626   */\n    tag_16:\n        /* \"#utility.yul\":356:362   */\n      0x00\n        /* \"#utility.yul\":405:407   */\n      0x20\n        /* \"#utility.yul\":393:402   */\n      dup3\n        /* \"#utility.yul\":384:391   */\n      dup5\n        /* \"#utility.yul\":380:403   */\n      sub\n        /* \"#utility.yul\":376:408   */\n      slt\n        /* \"#utility.yul\":373:492   */\n      iszero\n      tag_42\n      jumpi\n        /* \"#utility.yul\":411:490   */\n      tag_43\n      tag_44\n      jump\t// in\n    tag_43:\n        /* \"#utility.yul\":373:492   */\n    tag_42:\n        /* \"#utility.yul\":531:532   */\n      0x00\n        /* \"#utility.yul\":556:609   */\n      tag_45\n        /* \"#utility.yul\":601:608   */\n      dup5\n        /* \"#utility.yul\":592:598   */\n      dup3\n        /* \"#utility.yul\":581:590   */\n      dup6\n        /* \"#utility.yul\":577:599   */\n      add\n        /* \"#utility.yul\":556:609   */\n      tag_37\n      jump\t// in\n    tag_45:\n        /* \"#utility.yul\":546:609   */\n      swap2\n      pop\n        /* \"#utility.yul\":502:619   */\n      pop\n        /* \"#utility.yul\":297:626   */\n      swap3\n      swap2\n      pop\n      pop\n      jump\t// out\n        /* \"#utility.yul\":632:1106   */\n    tag_8:\n        /* \"#utility.yul\":700:706   */\n      0x00\n        /* \"#utility.yul\":708:714   */\n      dup1\n        /* \"#utility.yul\":757:759   */\n      0x40\n        /* \"#utility.yul\":745:754   */\n      dup4\n        /* \"#utility.yul\":736:743   */\n      dup6\n        /* \"#utility.yul\":732:755   */\n      sub\n        /* \"#utility.yul\":728:760   */\n      slt\n        /* \"#utility.yul\":725:844   */\n      iszero\n      tag_47\n      jumpi\n        /* \"#utility.yul\":763:842   */\n      tag_48\n      tag_44\n      jump\t// in\n    tag_48:\n        /* \"#utility.yul\":725:844   */\n    tag_47:\n        /* \"#utility.yul\":883:884   */\n      0x00\n        /* \"#utility.yul\":908:961   */\n      tag_49\n        /* \"#utility.yul\":953:960   */\n      dup6\n        /* \"#utility.yul\":944:950   */\n      dup3\n        /* \"#utility.yul\":933:942   */\n      dup7\n        /* \"#utility.yul\":929:951   */\n      add\n        /* \"#utility.yul\":908:961   */\n      tag_37\n      jump\t// in\n    tag_49:\n        /* \"#utility.yul\":898:961   */\n      swap3\n      pop\n        /* \"#utility.yul\":854:971   */\n      pop\n        /* \"#utility.yul\":1010:1012   */\n      0x20\n        /* \"#utility.yul\":1036:1089   */\n      tag_50\n        /* \"#utility.yul\":1081:1088   */\n      dup6\n        /* \"#utility.yul\":1072:1078   */\n      dup3\n        /* \"#utility.yul\":1061:1070   */\n      dup7\n        /* \"#utility.yul\":1057:1079   */\n      add\n        /* \"#utility.yul\":1036:1089   */\n      tag_33\n      jump\t// in\n    tag_50:\n        /* \"#utility.yul\":1026:1089   */\n      swap2\n      pop\n        /* \"#utility.yul\":981:1099   */\n      pop\n        /* \"#utility.yul\":632:1106   */\n      swap3\n      pop\n      swap3\n      swap1\n      pop\n      jump\t// out\n        /* \"#utility.yul\":1112:1335   */\n    tag_51:\n        /* \"#utility.yul\":1203:1213   */\n      0x00\n        /* \"#utility.yul\":1224:1292   */\n      tag_53\n        /* \"#utility.yul\":1288:1291   */\n      dup4\n        /* \"#utility.yul\":1280:1286   */\n      dup4\n        /* \"#utility.yul\":1224:1292   */\n      tag_54\n      jump\t// in\n    tag_53:\n        /* \"#utility.yul\":1324:1328   */\n      0x20\n        /* \"#utility.yul\":1319:1322   */\n      dup4\n        /* \"#utility.yul\":1315:1329   */\n      add\n        /* \"#utility.yul\":1301:1329   */\n      swap1\n      pop\n        /* \"#utility.yul\":1112:1335   */\n      swap3\n      swap2\n      pop\n      pop\n      jump\t// out\n        /* \"#utility.yul\":1341:1459   */\n    tag_55:\n        /* \"#utility.yul\":1428:1452   */\n      tag_57\n        /* \"#utility.yul\":1446:1451   */\n      dup2\n        /* \"#utility.yul\":1428:1452   */\n      tag_58\n      jump\t// in\n    tag_57:\n        /* \"#utility.yul\":1423:1426   */\n      dup3\n        /* \"#utility.yul\":1416:1453   */\n      mstore\n        /* \"#utility.yul\":1341:1459   */\n      pop\n      pop\n      jump\t// out\n        /* \"#utility.yul\":1511:2353   */\n    tag_59:\n        /* \"#utility.yul\":1652:1655   */\n      0x00\n        /* \"#utility.yul\":1681:1757   */\n      tag_61\n        /* \"#utility.yul\":1751:1756   */\n      dup3\n        /* \"#utility.yul\":1681:1757   */\n      tag_62\n      jump\t// in\n    tag_61:\n        /* \"#utility.yul\":1773:1859   */\n      tag_63\n        /* \"#utility.yul\":1852:1858   */\n      dup2\n        /* \"#utility.yul\":1847:1850   */\n      dup6\n        /* \"#utility.yul\":1773:1859   */\n      tag_64\n      jump\t// in\n    tag_63:\n        /* \"#utility.yul\":1766:1859   */\n      swap4\n      pop\n        /* \"#utility.yul\":1883:1961   */\n      tag_65\n        /* \"#utility.yul\":1955:1960   */\n      dup4\n        /* \"#utility.yul\":1883:1961   */\n      tag_66\n      jump\t// in\n    tag_65:\n        /* \"#utility.yul\":1984:1991   */\n      dup1\n        /* \"#utility.yul\":2015:2016   */\n      0x00\n        /* \"#utility.yul\":2000:2328   */\n    tag_67:\n        /* \"#utility.yul\":2025:2031   */\n      dup4\n        /* \"#utility.yul\":2022:2023   */\n      dup2\n        /* \"#utility.yul\":2019:2032   */\n      lt\n        /* \"#utility.yul\":2000:2328   */\n      iszero\n      tag_69\n      jumpi\n        /* \"#utility.yul\":2101:2107   */\n      dup2\n        /* \"#utility.yul\":2095:2108   */\n      mload\n        /* \"#utility.yul\":2128:2213   */\n      tag_70\n        /* \"#utility.yul\":2209:2212   */\n      dup9\n        /* \"#utility.yul\":2194:2207   */\n      dup3\n        /* \"#utility.yul\":2128:2213   */\n      tag_51\n      jump\t// in\n    tag_70:\n        /* \"#utility.yul\":2121:2213   */\n      swap8\n      pop\n        /* \"#utility.yul\":2236:2318   */\n      tag_71\n        /* \"#utility.yul\":2311:2317   */\n      dup4\n        /* \"#utility.yul\":2236:2318   */\n      tag_72\n      jump\t// in\n    tag_71:\n        /* \"#utility.yul\":2226:2318   */\n      swap3\n      pop\n        /* \"#utility.yul\":2060:2328   */\n      pop\n        /* \"#utility.yul\":2047:2048   */\n      0x01\n        /* \"#utility.yul\":2044:2045   */\n      dup2\n        /* \"#utility.yul\":2040:2049   */\n      add\n        /* \"#utility.yul\":2035:2049   */\n      swap1\n      pop\n        /* \"#utility.yul\":2000:2328   */\n      jump(tag_67)\n    tag_69:\n        /* \"#utility.yul\":2004:2018   */\n      pop\n        /* \"#utility.yul\":2344:2347   */\n      dup6\n        /* \"#utility.yul\":2337:2347   */\n      swap4\n      pop\n        /* \"#utility.yul\":1657:2353   */\n      pop\n      pop\n      pop\n        /* \"#utility.yul\":1511:2353   */\n      swap3\n      swap2\n      pop\n      pop\n      jump\t// out\n        /* \"#utility.yul\":2359:2524   */\n    tag_54:\n        /* \"#utility.yul\":2458:2517   */\n      tag_74\n        /* \"#utility.yul\":2511:2516   */\n      dup2\n        /* \"#utility.yul\":2458:2517   */\n      tag_75\n      jump\t// in\n    tag_74:\n        /* \"#utility.yul\":2453:2456   */\n      dup3\n        /* \"#utility.yul\":2446:2518   */\n      mstore\n        /* \"#utility.yul\":2359:2524   */\n      pop\n      pop\n      jump\t// out\n        /* \"#utility.yul\":2530:2705   */\n    tag_76:\n        /* \"#utility.yul\":2639:2698   */\n      tag_78\n        /* \"#utility.yul\":2692:2697   */\n      dup2\n        /* \"#utility.yul\":2639:2698   */\n      tag_75\n      jump\t// in\n    tag_78:\n        /* \"#utility.yul\":2634:2637   */\n      dup3\n        /* \"#utility.yul\":2627:2699   */\n      mstore\n        /* \"#utility.yul\":2530:2705   */\n      pop\n      pop\n      jump\t// out\n        /* \"#utility.yul\":2711:2829   */\n    tag_79:\n        /* \"#utility.yul\":2798:2822   */\n      tag_81\n        /* \"#utility.yul\":2816:2821   */\n      dup2\n        /* \"#utility.yul\":2798:2822   */\n      tag_82\n      jump\t// in\n    tag_81:\n        /* \"#utility.yul\":2793:2796   */\n      dup3\n        /* \"#utility.yul\":2786:2823   */\n      mstore\n        /* \"#utility.yul\":2711:2829   */\n      pop\n      pop\n      jump\t// out\n        /* \"#utility.yul\":2835:3252   */\n    tag_13:\n        /* \"#utility.yul\":3000:3004   */\n      0x00\n        /* \"#utility.yul\":3038:3040   */\n      0x20\n        /* \"#utility.yul\":3027:3036   */\n      dup3\n        /* \"#utility.yul\":3023:3041   */\n      add\n        /* \"#utility.yul\":3015:3041   */\n      swap1\n      pop\n        /* \"#utility.yul\":3087:3096   */\n      dup2\n        /* \"#utility.yul\":3081:3085   */\n      dup2\n        /* \"#utility.yul\":3077:3097   */\n      sub\n        /* \"#utility.yul\":3073:3074   */\n      0x00\n        /* \"#utility.yul\":3062:3071   */\n      dup4\n        /* \"#utility.yul\":3058:3075   */\n      add\n        /* \"#utility.yul\":3051:3098   */\n      mstore\n        /* \"#utility.yul\":3115:3245   */\n      tag_84\n        /* \"#utility.yul\":3240:3244   */\n      dup2\n        /* \"#utility.yul\":3231:3237   */\n      dup5\n        /* \"#utility.yul\":3115:3245   */\n      tag_59\n      jump\t// in\n    tag_84:\n        /* \"#utility.yul\":3107:3245   */\n      swap1\n      pop\n        /* \"#utility.yul\":2835:3252   */\n      swap3\n      swap2\n      pop\n      pop\n      jump\t// out\n        /* \"#utility.yul\":3258:3524   */\n    tag_19:\n        /* \"#utility.yul\":3373:3377   */\n      0x00\n        /* \"#utility.yul\":3411:3413   */\n      0x20\n        /* \"#utility.yul\":3400:3409   */\n      dup3\n        /* \"#utility.yul\":3396:3414   */\n      add\n        /* \"#utility.yul\":3388:3414   */\n      swap1\n      pop\n        /* \"#utility.yul\":3424:3517   */\n      tag_86\n        /* \"#utility.yul\":3514:3515   */\n      0x00\n        /* \"#utility.yul\":3503:3512   */\n      dup4\n        /* \"#utility.yul\":3499:3516   */\n      add\n        /* \"#utility.yul\":3490:3496   */\n      dup5\n        /* \"#utility.yul\":3424:3517   */\n      tag_76\n      jump\t// in\n    tag_86:\n        /* \"#utility.yul\":3258:3524   */\n      swap3\n      swap2\n      pop\n      pop\n      jump\t// out\n        /* \"#utility.yul\":3530:3972   */\n    tag_24:\n        /* \"#utility.yul\":3679:3683   */\n      0x00\n        /* \"#utility.yul\":3717:3719   */\n      0x60\n        /* \"#utility.yul\":3706:3715   */\n      dup3\n        /* \"#utility.yul\":3702:3720   */\n      add\n        /* \"#utility.yul\":3694:3720   */\n      swap1\n      pop\n        /* \"#utility.yul\":3730:3801   */\n      tag_88\n        /* \"#utility.yul\":3798:3799   */\n      0x00\n        /* \"#utility.yul\":3787:3796   */\n      dup4\n        /* \"#utility.yul\":3783:3800   */\n      add\n        /* \"#utility.yul\":3774:3780   */\n      dup7\n        /* \"#utility.yul\":3730:3801   */\n      tag_79\n      jump\t// in\n    tag_88:\n        /* \"#utility.yul\":3811:3883   */\n      tag_89\n        /* \"#utility.yul\":3879:3881   */\n      0x20\n        /* \"#utility.yul\":3868:3877   */\n      dup4\n        /* \"#utility.yul\":3864:3882   */\n      add\n        /* \"#utility.yul\":3855:3861   */\n      dup6\n        /* \"#utility.yul\":3811:3883   */\n      tag_55\n      jump\t// in\n    tag_89:\n        /* \"#utility.yul\":3893:3965   */\n      tag_90\n        /* \"#utility.yul\":3961:3963   */\n      0x40\n        /* \"#utility.yul\":3950:3959   */\n      dup4\n        /* \"#utility.yul\":3946:3964   */\n      add\n        /* \"#utility.yul\":3937:3943   */\n      dup5\n        /* \"#utility.yul\":3893:3965   */\n      tag_55\n      jump\t// in\n    tag_90:\n        /* \"#utility.yul\":3530:3972   */\n      swap5\n      swap4\n      pop\n      pop\n      pop\n      pop\n      jump\t// out\n        /* \"#utility.yul\":4059:4213   */\n    tag_66:\n        /* \"#utility.yul\":4148:4152   */\n      0x00\n        /* \"#utility.yul\":4171:4174   */\n      dup2\n        /* \"#utility.yul\":4163:4174   */\n      swap1\n      pop\n        /* \"#utility.yul\":4201:4205   */\n      0x20\n        /* \"#utility.yul\":4196:4199   */\n      dup3\n        /* \"#utility.yul\":4192:4206   */\n      add\n        /* \"#utility.yul\":4184:4206   */\n      swap1\n      pop\n        /* \"#utility.yul\":4059:4213   */\n      swap2\n      swap1\n      pop\n      jump\t// out\n        /* \"#utility.yul\":4219:4355   */\n    tag_62:\n        /* \"#utility.yul\":4308:4314   */\n      0x00\n        /* \"#utility.yul\":4342:4347   */\n      dup2\n        /* \"#utility.yul\":4336:4348   */\n      mload\n        /* \"#utility.yul\":4326:4348   */\n      swap1\n      pop\n        /* \"#utility.yul\":4219:4355   */\n      swap2\n      swap1\n      pop\n      jump\t// out\n        /* \"#utility.yul\":4361:4496   */\n    tag_72:\n        /* \"#utility.yul\":4453:4457   */\n      0x00\n        /* \"#utility.yul\":4485:4489   */\n      0x20\n        /* \"#utility.yul\":4480:4483   */\n      dup3\n        /* \"#utility.yul\":4476:4490   */\n      add\n        /* \"#utility.yul\":4468:4490   */\n      swap1\n      pop\n        /* \"#utility.yul\":4361:4496   */\n      swap2\n      swap1\n      pop\n      jump\t// out\n        /* \"#utility.yul\":4502:4686   */\n    tag_64:\n        /* \"#utility.yul\":4601:4612   */\n      0x00\n        /* \"#utility.yul\":4635:4641   */\n      dup3\n        /* \"#utility.yul\":4630:4633   */\n      dup3\n        /* \"#utility.yul\":4623:4642   */\n      mstore\n        /* \"#utility.yul\":4675:4679   */\n      0x20\n        /* \"#utility.yul\":4670:4673   */\n      dup3\n        /* \"#utility.yul\":4666:4680   */\n      add\n        /* \"#utility.yul\":4651:4680   */\n      swap1\n      pop\n        /* \"#utility.yul\":4502:4686   */\n      swap3\n      swap2\n      pop\n      pop\n      jump\t// out\n        /* \"#utility.yul\":4692:4788   */\n    tag_58:\n        /* \"#utility.yul\":4729:4736   */\n      0x00\n        /* \"#utility.yul\":4758:4782   */\n      tag_98\n        /* \"#utility.yul\":4776:4781   */\n      dup3\n        /* \"#utility.yul\":4758:4782   */\n      tag_99\n      jump\t// in\n    tag_98:\n        /* \"#utility.yul\":4747:4782   */\n      swap1\n      pop\n        /* \"#utility.yul\":4692:4788   */\n      swap2\n      swap1\n      pop\n      jump\t// out\n        /* \"#utility.yul\":4794:4920   */\n    tag_99:\n        /* \"#utility.yul\":4831:4838   */\n      0x00\n        /* \"#utility.yul\":4871:4913   */\n      0xffffffffffffffffffffffffffffffffffffffff\n        /* \"#utility.yul\":4864:4869   */\n      dup3\n        /* \"#utility.yul\":4860:4914   */\n      and\n        /* \"#utility.yul\":4849:4914   */\n      swap1\n      pop\n        /* \"#utility.yul\":4794:4920   */\n      swap2\n      swap1\n      pop\n      jump\t// out\n        /* \"#utility.yul\":4926:5003   */\n    tag_82:\n        /* \"#utility.yul\":4963:4970   */\n      0x00\n        /* \"#utility.yul\":4992:4997   */\n      dup2\n        /* \"#utility.yul\":4981:4997   */\n      swap1\n      pop\n        /* \"#utility.yul\":4926:5003   */\n      swap2\n      swap1\n      pop\n      jump\t// out\n        /* \"#utility.yul\":5009:5157   */\n    tag_75:\n        /* \"#utility.yul\":5081:5090   */\n      0x00\n        /* \"#utility.yul\":5114:5151   */\n      tag_103\n        /* \"#utility.yul\":5145:5150   */\n      dup3\n        /* \"#utility.yul\":5114:5151   */\n      tag_104\n      jump\t// in\n    tag_103:\n        /* \"#utility.yul\":5101:5151   */\n      swap1\n      pop\n        /* \"#utility.yul\":5009:5157   */\n      swap2\n      swap1\n      pop\n      jump\t// out\n        /* \"#utility.yul\":5163:5289   */\n    tag_104:\n        /* \"#utility.yul\":5213:5222   */\n      0x00\n        /* \"#utility.yul\":5246:5283   */\n      tag_106\n        /* \"#utility.yul\":5277:5282   */\n      dup3\n        /* \"#utility.yul\":5246:5283   */\n      tag_107\n      jump\t// in\n    tag_106:\n        /* \"#utility.yul\":5233:5283   */\n      swap1\n      pop\n        /* \"#utility.yul\":5163:5289   */\n      swap2\n      swap1\n      pop\n      jump\t// out\n        /* \"#utility.yul\":5295:5408   */\n    tag_107:\n        /* \"#utility.yul\":5345:5354   */\n      0x00\n        /* \"#utility.yul\":5378:5402   */\n      tag_109\n        /* \"#utility.yul\":5396:5401   */\n      dup3\n        /* \"#utility.yul\":5378:5402   */\n      tag_99\n      jump\t// in\n    tag_109:\n        /* \"#utility.yul\":5365:5402   */\n      swap1\n      pop\n        /* \"#utility.yul\":5295:5408   */\n      swap2\n      swap1\n      pop\n      jump\t// out\n        /* \"#utility.yul\":5537:5654   */\n    tag_44:\n        /* \"#utility.yul\":5646:5647   */\n      0x00\n        /* \"#utility.yul\":5643:5644   */\n      dup1\n        /* \"#utility.yul\":5636:5648   */\n      revert\n        /* \"#utility.yul\":5660:5782   */\n    tag_36:\n        /* \"#utility.yul\":5733:5757   */\n      tag_114\n        /* \"#utility.yul\":5751:5756   */\n      dup2\n        /* \"#utility.yul\":5733:5757   */\n      tag_58\n      jump\t// in\n    tag_114:\n        /* \"#utility.yul\":5726:5731   */\n      dup2\n        /* \"#utility.yul\":5723:5758   */\n      eq\n        /* \"#utility.yul\":5713:5776   */\n      tag_115\n      jumpi\n        /* \"#utility.yul\":5772:5773   */\n      0x00\n        /* \"#utility.yul\":5769:5770   */\n      dup1\n        /* \"#utility.yul\":5762:5774   */\n      revert\n        /* \"#utility.yul\":5713:5776   */\n    tag_115:\n        /* \"#utility.yul\":5660:5782   */\n      pop\n      jump\t// out\n        /* \"#utility.yul\":5788:5910   */\n    tag_40:\n        /* \"#utility.yul\":5861:5885   */\n      tag_117\n        /* \"#utility.yul\":5879:5884   */\n      dup2\n        /* \"#utility.yul\":5861:5885   */\n      tag_82\n      jump\t// in\n    tag_117:\n        /* \"#utility.yul\":5854:5859   */\n      dup2\n        /* \"#utility.yul\":5851:5886   */\n      eq\n        /* \"#utility.yul\":5841:5904   */\n      tag_118\n      jumpi\n        /* \"#utility.yul\":5900:5901   */\n      0x00\n        /* \"#utility.yul\":5897:5898   */\n      dup1\n        /* \"#utility.yul\":5890:5902   */\n      revert\n        /* \"#utility.yul\":5841:5904   */\n    tag_118:\n        /* \"#utility.yul\":5788:5910   */\n      pop\n      jump\t// out\n    stop\n\n    sub_0: assembly {\n            /* \"ReceivePayment.sol\":461:3009  contract ReceivePayment {... */\n          mstore(0x40, 0x80)\n            /* \"ReceivePayment.sol\":1582:1744  constructor(uint val, address creator, address logisticsP) payable {... */\n          mload(0x40)\n          sub(codesize, bytecodeSize)\n          dup1\n          bytecodeSize\n          dup4\n          codecopy\n          dup2\n          dup2\n          add\n          0x40\n          mstore\n          dup2\n          add\n          swap1\n          tag_1\n          swap2\n          swap1\n          tag_2\n          jump\t// in\n        tag_1:\n            /* \"ReceivePayment.sol\":1676:1683  creator */\n          dup2\n            /* \"ReceivePayment.sol\":1659:1665  seller */\n          0x01\n          0x00\n            /* \"ReceivePayment.sol\":1659:1684  seller = payable(creator) */\n          0x0100\n          exp\n          dup2\n          sload\n          dup2\n          0xffffffffffffffffffffffffffffffffffffffff\n          mul\n          not\n          and\n          swap1\n          dup4\n          0xffffffffffffffffffffffffffffffffffffffff\n          and\n          mul\n          or\n          swap1\n          sstore\n          pop\n            /* \"ReceivePayment.sol\":1706:1716  logisticsP */\n          dup1\n            /* \"ReceivePayment.sol\":1694:1703  forwarder */\n          0x03\n          0x00\n            /* \"ReceivePayment.sol\":1694:1716  forwarder = logisticsP */\n          0x0100\n          exp\n          dup2\n          sload\n          dup2\n          0xffffffffffffffffffffffffffffffffffffffff\n          mul\n          not\n          and\n          swap1\n          dup4\n          0xffffffffffffffffffffffffffffffffffffffff\n          and\n          mul\n          or\n          swap1\n          sstore\n          pop\n            /* \"ReceivePayment.sol\":1734:1737  val */\n          dup3\n            /* \"ReceivePayment.sol\":1726:1731  value */\n          0x00\n            /* \"ReceivePayment.sol\":1726:1737  value = val */\n          dup2\n          swap1\n          sstore\n          pop\n            /* \"ReceivePayment.sol\":1582:1744  constructor(uint val, address creator, address logisticsP) payable {... */\n          pop\n          pop\n          pop\n            /* \"ReceivePayment.sol\":461:3009  contract ReceivePayment {... */\n          jump(tag_5)\n            /* \"#utility.yul\":7:150   */\n        tag_7:\n            /* \"#utility.yul\":64:69   */\n          0x00\n            /* \"#utility.yul\":95:101   */\n          dup2\n            /* \"#utility.yul\":89:102   */\n          mload\n            /* \"#utility.yul\":80:102   */\n          swap1\n          pop\n            /* \"#utility.yul\":111:144   */\n          tag_9\n            /* \"#utility.yul\":138:143   */\n          dup2\n            /* \"#utility.yul\":111:144   */\n          tag_10\n          jump\t// in\n        tag_9:\n            /* \"#utility.yul\":7:150   */\n          swap3\n          swap2\n          pop\n          pop\n          jump\t// out\n            /* \"#utility.yul\":156:299   */\n        tag_11:\n            /* \"#utility.yul\":213:218   */\n          0x00\n            /* \"#utility.yul\":244:250   */\n          dup2\n            /* \"#utility.yul\":238:251   */\n          mload\n            /* \"#utility.yul\":229:251   */\n          swap1\n          pop\n            /* \"#utility.yul\":260:293   */\n          tag_13\n            /* \"#utility.yul\":287:292   */\n          dup2\n            /* \"#utility.yul\":260:293   */\n          tag_14\n          jump\t// in\n        tag_13:\n            /* \"#utility.yul\":156:299   */\n          swap3\n          swap2\n          pop\n          pop\n          jump\t// out\n            /* \"#utility.yul\":305:968   */\n        tag_2:\n            /* \"#utility.yul\":393:399   */\n          0x00\n            /* \"#utility.yul\":401:407   */\n          dup1\n            /* \"#utility.yul\":409:415   */\n          0x00\n            /* \"#utility.yul\":458:460   */\n          0x60\n            /* \"#utility.yul\":446:455   */\n          dup5\n            /* \"#utility.yul\":437:444   */\n          dup7\n            /* \"#utility.yul\":433:456   */\n          sub\n            /* \"#utility.yul\":429:461   */\n          slt\n            /* \"#utility.yul\":426:545   */\n          iszero\n          tag_16\n          jumpi\n            /* \"#utility.yul\":464:543   */\n          tag_17\n          tag_18\n          jump\t// in\n        tag_17:\n            /* \"#utility.yul\":426:545   */\n        tag_16:\n            /* \"#utility.yul\":584:585   */\n          0x00\n            /* \"#utility.yul\":609:673   */\n          tag_19\n            /* \"#utility.yul\":665:672   */\n          dup7\n            /* \"#utility.yul\":656:662   */\n          dup3\n            /* \"#utility.yul\":645:654   */\n          dup8\n            /* \"#utility.yul\":641:663   */\n          add\n            /* \"#utility.yul\":609:673   */\n          tag_11\n          jump\t// in\n        tag_19:\n            /* \"#utility.yul\":599:673   */\n          swap4\n          pop\n            /* \"#utility.yul\":555:683   */\n          pop\n            /* \"#utility.yul\":722:724   */\n          0x20\n            /* \"#utility.yul\":748:812   */\n          tag_20\n            /* \"#utility.yul\":804:811   */\n          dup7\n            /* \"#utility.yul\":795:801   */\n          dup3\n            /* \"#utility.yul\":784:793   */\n          dup8\n            /* \"#utility.yul\":780:802   */\n          add\n            /* \"#utility.yul\":748:812   */\n          tag_7\n          jump\t// in\n        tag_20:\n            /* \"#utility.yul\":738:812   */\n          swap3\n          pop\n            /* \"#utility.yul\":693:822   */\n          pop\n            /* \"#utility.yul\":861:863   */\n          0x40\n            /* \"#utility.yul\":887:951   */\n          tag_21\n            /* \"#utility.yul\":943:950   */\n          dup7\n            /* \"#utility.yul\":934:940   */\n          dup3\n            /* \"#utility.yul\":923:932   */\n          dup8\n            /* \"#utility.yul\":919:941   */\n          add\n            /* \"#utility.yul\":887:951   */\n          tag_7\n          jump\t// in\n        tag_21:\n            /* \"#utility.yul\":877:951   */\n          swap2\n          pop\n            /* \"#utility.yul\":832:961   */\n          pop\n            /* \"#utility.yul\":305:968   */\n          swap3\n          pop\n          swap3\n          pop\n          swap3\n          jump\t// out\n            /* \"#utility.yul\":1055:1151   */\n        tag_24:\n            /* \"#utility.yul\":1092:1099   */\n          0x00\n            /* \"#utility.yul\":1121:1145   */\n          tag_26\n            /* \"#utility.yul\":1139:1144   */\n          dup3\n            /* \"#utility.yul\":1121:1145   */\n          tag_27\n          jump\t// in\n        tag_26:\n            /* \"#utility.yul\":1110:1145   */\n          swap1\n          pop\n            /* \"#utility.yul\":1055:1151   */\n          swap2\n          swap1\n          pop\n          jump\t// out\n            /* \"#utility.yul\":1157:1283   */\n        tag_27:\n            /* \"#utility.yul\":1194:1201   */\n          0x00\n            /* \"#utility.yul\":1234:1276   */\n          0xffffffffffffffffffffffffffffffffffffffff\n            /* \"#utility.yul\":1227:1232   */\n          dup3\n            /* \"#utility.yul\":1223:1277   */\n          and\n            /* \"#utility.yul\":1212:1277   */\n          swap1\n          pop\n            /* \"#utility.yul\":1157:1283   */\n          swap2\n          swap1\n          pop\n          jump\t// out\n            /* \"#utility.yul\":1289:1366   */\n        tag_29:\n            /* \"#utility.yul\":1326:1333   */\n          0x00\n            /* \"#utility.yul\":1355:1360   */\n          dup2\n            /* \"#utility.yul\":1344:1360   */\n          swap1\n          pop\n            /* \"#utility.yul\":1289:1366   */\n          swap2\n          swap1\n          pop\n          jump\t// out\n            /* \"#utility.yul\":1495:1612   */\n        tag_18:\n            /* \"#utility.yul\":1604:1605   */\n          0x00\n            /* \"#utility.yul\":1601:1602   */\n          dup1\n            /* \"#utility.yul\":1594:1606   */\n          revert\n            /* \"#utility.yul\":1618:1740   */\n        tag_10:\n            /* \"#utility.yul\":1691:1715   */\n          tag_35\n            /* \"#utility.yul\":1709:1714   */\n          dup2\n            /* \"#utility.yul\":1691:1715   */\n          tag_24\n          jump\t// in\n        tag_35:\n            /* \"#utility.yul\":1684:1689   */\n          dup2\n            /* \"#utility.yul\":1681:1716   */\n          eq\n            /* \"#utility.yul\":1671:1734   */\n          tag_36\n          jumpi\n            /* \"#utility.yul\":1730:1731   */\n          0x00\n            /* \"#utility.yul\":1727:1728   */\n          dup1\n            /* \"#utility.yul\":1720:1732   */\n          revert\n            /* \"#utility.yul\":1671:1734   */\n        tag_36:\n            /* \"#utility.yul\":1618:1740   */\n          pop\n          jump\t// out\n            /* \"#utility.yul\":1746:1868   */\n        tag_14:\n            /* \"#utility.yul\":1819:1843   */\n          tag_38\n            /* \"#utility.yul\":1837:1842   */\n          dup2\n            /* \"#utility.yul\":1819:1843   */\n          tag_29\n          jump\t// in\n        tag_38:\n            /* \"#utility.yul\":1812:1817   */\n          dup2\n            /* \"#utility.yul\":1809:1844   */\n          eq\n            /* \"#utility.yul\":1799:1862   */\n          tag_39\n          jumpi\n            /* \"#utility.yul\":1858:1859   */\n          0x00\n            /* \"#utility.yul\":1855:1856   */\n          dup1\n            /* \"#utility.yul\":1848:1860   */\n          revert\n            /* \"#utility.yul\":1799:1862   */\n        tag_39:\n            /* \"#utility.yul\":1746:1868   */\n          pop\n          jump\t// out\n            /* \"ReceivePayment.sol\":461:3009  contract ReceivePayment {... */\n        tag_5:\n          dataSize(sub_0)\n          dup1\n          dataOffset(sub_0)\n          0x00\n          codecopy\n          0x00\n          return\n        stop\n\n        sub_0: assembly {\n                /* \"ReceivePayment.sol\":461:3009  contract ReceivePayment {... */\n              mstore(0x40, 0x80)\n              jumpi(tag_1, lt(calldatasize, 0x04))\n              shr(0xe0, calldataload(0x00))\n              dup1\n              0xab040107\n              gt\n              tag_11\n              jumpi\n              dup1\n              0xab040107\n              eq\n              tag_6\n              jumpi\n              dup1\n              0xc19d93fb\n              eq\n              tag_7\n              jumpi\n              dup1\n              0xd116c8c4\n              eq\n              tag_8\n              jumpi\n              dup1\n              0xd6960697\n              eq\n              tag_9\n              jumpi\n              dup1\n              0xf645d4f9\n              eq\n              tag_10\n              jumpi\n              jump(tag_1)\n            tag_11:\n              dup1\n              0x08551a53\n              eq\n              tag_2\n              jumpi\n              dup1\n              0x35a063b4\n              eq\n              tag_3\n              jumpi\n              dup1\n              0x3fa4f245\n              eq\n              tag_4\n              jumpi\n              dup1\n              0x7150d8ae\n              eq\n              tag_5\n              jumpi\n            tag_1:\n              0x00\n              dup1\n              revert\n                /* \"ReceivePayment.sol\":514:543  address payable public seller */\n            tag_2:\n              callvalue\n              dup1\n              iszero\n              tag_12\n              jumpi\n              0x00\n              dup1\n              revert\n            tag_12:\n              pop\n              tag_13\n              tag_14\n              jump\t// in\n            tag_13:\n              mload(0x40)\n              tag_15\n              swap2\n              swap1\n              tag_16\n              jump\t// in\n            tag_15:\n              mload(0x40)\n              dup1\n              swap2\n              sub\n              swap1\n              return\n                /* \"ReceivePayment.sol\":1869:2219  function abort() public restrictedSeller inState(State.Created) {... */\n            tag_3:\n              callvalue\n              dup1\n              iszero\n              tag_17\n              jumpi\n              0x00\n              dup1\n              revert\n            tag_17:\n              pop\n              tag_18\n              tag_19\n              jump\t// in\n            tag_18:\n              stop\n                /* \"ReceivePayment.sol\":491:508  uint public value */\n            tag_4:\n              callvalue\n              dup1\n              iszero\n              tag_20\n              jumpi\n              0x00\n              dup1\n              revert\n            tag_20:\n              pop\n              tag_21\n              tag_22\n              jump\t// in\n            tag_21:\n              mload(0x40)\n              tag_23\n              swap2\n              swap1\n              tag_24\n              jump\t// in\n            tag_23:\n              mload(0x40)\n              dup1\n              swap2\n              sub\n              swap1\n              return\n                /* \"ReceivePayment.sol\":549:577  address payable public buyer */\n            tag_5:\n              callvalue\n              dup1\n              iszero\n              tag_25\n              jumpi\n              0x00\n              dup1\n              revert\n            tag_25:\n              pop\n              tag_26\n              tag_27\n              jump\t// in\n            tag_26:\n              mload(0x40)\n              tag_28\n              swap2\n              swap1\n              tag_16\n              jump\t// in\n            tag_28:\n              mload(0x40)\n              dup1\n              swap2\n              sub\n              swap1\n              return\n                /* \"ReceivePayment.sol\":2267:2393  function decline() public restrictedBuyer inState(State.Created) {... */\n            tag_6:\n              callvalue\n              dup1\n              iszero\n              tag_29\n              jumpi\n              0x00\n              dup1\n              revert\n            tag_29:\n              pop\n              tag_30\n              tag_31\n              jump\t// in\n            tag_30:\n              stop\n                /* \"ReceivePayment.sol\":740:758  State public state */\n            tag_7:\n              callvalue\n              dup1\n              iszero\n              tag_32\n              jumpi\n              0x00\n              dup1\n              revert\n            tag_32:\n              pop\n              tag_33\n              tag_34\n              jump\t// in\n            tag_33:\n              mload(0x40)\n              tag_35\n              swap2\n              swap1\n              tag_36\n              jump\t// in\n            tag_35:\n              mload(0x40)\n              dup1\n              swap2\n              sub\n              swap1\n              return\n                /* \"ReceivePayment.sol\":2855:3007  function releasePayment() public restrictedForwarder {... */\n            tag_8:\n              callvalue\n              dup1\n              iszero\n              tag_37\n              jumpi\n              0x00\n              dup1\n              revert\n            tag_37:\n              pop\n              tag_38\n              tag_39\n              jump\t// in\n            tag_38:\n              stop\n                /* \"ReceivePayment.sol\":2548:2758  function confirmPurchase() public inState(State.Created) payable {... */\n            tag_9:\n              tag_40\n              tag_41\n              jump\t// in\n            tag_40:\n              stop\n                /* \"ReceivePayment.sol\":583:607  address public forwarder */\n            tag_10:\n              callvalue\n              dup1\n              iszero\n              tag_42\n              jumpi\n              0x00\n              dup1\n              revert\n            tag_42:\n              pop\n              tag_43\n              tag_44\n              jump\t// in\n            tag_43:\n              mload(0x40)\n              tag_45\n              swap2\n              swap1\n              tag_46\n              jump\t// in\n            tag_45:\n              mload(0x40)\n              dup1\n              swap2\n              sub\n              swap1\n              return\n                /* \"ReceivePayment.sol\":514:543  address payable public seller */\n            tag_14:\n              0x01\n              0x00\n              swap1\n              sload\n              swap1\n              0x0100\n              exp\n              swap1\n              div\n              0xffffffffffffffffffffffffffffffffffffffff\n              and\n              dup2\n              jump\t// out\n                /* \"ReceivePayment.sol\":1869:2219  function abort() public restrictedSeller inState(State.Created) {... */\n            tag_19:\n                /* \"ReceivePayment.sol\":1075:1081  seller */\n              0x01\n              0x00\n              swap1\n              sload\n              swap1\n              0x0100\n              exp\n              swap1\n              div\n              0xffffffffffffffffffffffffffffffffffffffff\n              and\n                /* \"ReceivePayment.sol\":1061:1081  msg.sender != seller */\n              0xffffffffffffffffffffffffffffffffffffffff\n              and\n                /* \"ReceivePayment.sol\":1061:1071  msg.sender */\n              caller\n                /* \"ReceivePayment.sol\":1061:1081  msg.sender != seller */\n              0xffffffffffffffffffffffffffffffffffffffff\n              and\n              eq\n                /* \"ReceivePayment.sol\":1057:1114  if (msg.sender != seller)... */\n              tag_48\n              jumpi\n                /* \"ReceivePayment.sol\":1102:1114  OnlySeller() */\n              mload(0x40)\n              0x85d1f72600000000000000000000000000000000000000000000000000000000\n              dup2\n              mstore\n              0x04\n              add\n              mload(0x40)\n              dup1\n              swap2\n              sub\n              swap1\n              revert\n                /* \"ReceivePayment.sol\":1057:1114  if (msg.sender != seller)... */\n            tag_48:\n                /* \"ReceivePayment.sol\":1918:1931  State.Created */\n              0x00\n                /* \"ReceivePayment.sol\":1436:1442  _state */\n              dup1\n                /* \"ReceivePayment.sol\":1427:1442  state != _state */\n              0x02\n              dup2\n              gt\n              iszero\n              tag_50\n              jumpi\n              tag_51\n              tag_52\n              jump\t// in\n            tag_51:\n            tag_50:\n                /* \"ReceivePayment.sol\":1427:1432  state */\n              0x03\n              0x14\n              swap1\n              sload\n              swap1\n              0x0100\n              exp\n              swap1\n              div\n              0xff\n              and\n                /* \"ReceivePayment.sol\":1427:1442  state != _state */\n              0x02\n              dup2\n              gt\n              iszero\n              tag_53\n              jumpi\n              tag_54\n              tag_52\n              jump\t// in\n            tag_54:\n            tag_53:\n              eq\n                /* \"ReceivePayment.sol\":1423:1477  if (state != _state)... */\n              tag_55\n              jumpi\n                /* \"ReceivePayment.sol\":1463:1477  InvalidState() */\n              mload(0x40)\n              0xbaf3f0f700000000000000000000000000000000000000000000000000000000\n              dup2\n              mstore\n              0x04\n              add\n              mload(0x40)\n              dup1\n              swap2\n              sub\n              swap1\n              revert\n                /* \"ReceivePayment.sol\":1423:1477  if (state != _state)... */\n            tag_55:\n                /* \"ReceivePayment.sol\":1948:1957  Aborted() */\n              0x72c874aeff0b183a56e2b79c71b46e1aed4dee5e09862134b8821ba2fddbf8bf\n              mload(0x40)\n              mload(0x40)\n              dup1\n              swap2\n              sub\n              swap1\n              log1\n                /* \"ReceivePayment.sol\":1975:1987  State.Closed */\n              0x02\n                /* \"ReceivePayment.sol\":1967:1972  state */\n              0x03\n              0x14\n                /* \"ReceivePayment.sol\":1967:1987  state = State.Closed */\n              0x0100\n              exp\n              dup2\n              sload\n              dup2\n              0xff\n              mul\n              not\n              and\n              swap1\n              dup4\n              0x02\n              dup2\n              gt\n              iszero\n              tag_57\n              jumpi\n              tag_58\n              tag_52\n              jump\t// in\n            tag_58:\n            tag_57:\n              mul\n              or\n              swap1\n              sstore\n              pop\n                /* \"ReceivePayment.sol\":2174:2180  seller */\n              0x01\n              0x00\n              swap1\n              sload\n              swap1\n              0x0100\n              exp\n              swap1\n              div\n              0xffffffffffffffffffffffffffffffffffffffff\n              and\n                /* \"ReceivePayment.sol\":2174:2189  seller.transfer */\n              0xffffffffffffffffffffffffffffffffffffffff\n              and\n                /* \"ReceivePayment.sol\":2174:2212  seller.transfer(address(this).balance) */\n              0x08fc\n                /* \"ReceivePayment.sol\":2190:2211  address(this).balance */\n              selfbalance\n                /* \"ReceivePayment.sol\":2174:2212  seller.transfer(address(this).balance) */\n              swap1\n              dup2\n              iszero\n              mul\n              swap1\n              mload(0x40)\n              0x00\n              mload(0x40)\n              dup1\n              dup4\n              sub\n              dup2\n              dup6\n              dup9\n              dup9\n              call\n              swap4\n              pop\n              pop\n              pop\n              pop\n              iszero\n              dup1\n              iszero\n              tag_60\n              jumpi\n              returndatasize\n              0x00\n              dup1\n              returndatacopy\n              revert(0x00, returndatasize)\n            tag_60:\n              pop\n                /* \"ReceivePayment.sol\":1124:1125  _ */\n              pop\n                /* \"ReceivePayment.sol\":1869:2219  function abort() public restrictedSeller inState(State.Created) {... */\n              jump\t// out\n                /* \"ReceivePayment.sol\":491:508  uint public value */\n            tag_22:\n              sload(0x00)\n              dup2\n              jump\t// out\n                /* \"ReceivePayment.sol\":549:577  address payable public buyer */\n            tag_27:\n              0x02\n              0x00\n              swap1\n              sload\n              swap1\n              0x0100\n              exp\n              swap1\n              div\n              0xffffffffffffffffffffffffffffffffffffffff\n              and\n              dup2\n              jump\t// out\n                /* \"ReceivePayment.sol\":2267:2393  function decline() public restrictedBuyer inState(State.Created) {... */\n            tag_31:\n                /* \"ReceivePayment.sol\":1321:1326  buyer */\n              0x02\n              0x00\n              swap1\n              sload\n              swap1\n              0x0100\n              exp\n              swap1\n              div\n              0xffffffffffffffffffffffffffffffffffffffff\n              and\n                /* \"ReceivePayment.sol\":1307:1326  msg.sender != buyer */\n              0xffffffffffffffffffffffffffffffffffffffff\n              and\n                /* \"ReceivePayment.sol\":1307:1317  msg.sender */\n              caller\n                /* \"ReceivePayment.sol\":1307:1326  msg.sender != buyer */\n              0xffffffffffffffffffffffffffffffffffffffff\n              and\n              eq\n                /* \"ReceivePayment.sol\":1303:1358  if (msg.sender != buyer)... */\n              tag_62\n              jumpi\n                /* \"ReceivePayment.sol\":1347:1358  OnlyBuyer() */\n              mload(0x40)\n              0x86efbb5500000000000000000000000000000000000000000000000000000000\n              dup2\n              mstore\n              0x04\n              add\n              mload(0x40)\n              dup1\n              swap2\n              sub\n              swap1\n              revert\n                /* \"ReceivePayment.sol\":1303:1358  if (msg.sender != buyer)... */\n            tag_62:\n                /* \"ReceivePayment.sol\":2317:2330  State.Created */\n              0x00\n                /* \"ReceivePayment.sol\":1436:1442  _state */\n              dup1\n                /* \"ReceivePayment.sol\":1427:1442  state != _state */\n              0x02\n              dup2\n              gt\n              iszero\n              tag_64\n              jumpi\n              tag_65\n              tag_52\n              jump\t// in\n            tag_65:\n            tag_64:\n                /* \"ReceivePayment.sol\":1427:1432  state */\n              0x03\n              0x14\n              swap1\n              sload\n              swap1\n              0x0100\n              exp\n              swap1\n              div\n              0xff\n              and\n                /* \"ReceivePayment.sol\":1427:1442  state != _state */\n              0x02\n              dup2\n              gt\n              iszero\n              tag_66\n              jumpi\n              tag_67\n              tag_52\n              jump\t// in\n            tag_67:\n            tag_66:\n              eq\n                /* \"ReceivePayment.sol\":1423:1477  if (state != _state)... */\n              tag_68\n              jumpi\n                /* \"ReceivePayment.sol\":1463:1477  InvalidState() */\n              mload(0x40)\n              0xbaf3f0f700000000000000000000000000000000000000000000000000000000\n              dup2\n              mstore\n              0x04\n              add\n              mload(0x40)\n              dup1\n              swap2\n              sub\n              swap1\n              revert\n                /* \"ReceivePayment.sol\":1423:1477  if (state != _state)... */\n            tag_68:\n                /* \"ReceivePayment.sol\":2347:2356  Aborted() */\n              0x72c874aeff0b183a56e2b79c71b46e1aed4dee5e09862134b8821ba2fddbf8bf\n              mload(0x40)\n              mload(0x40)\n              dup1\n              swap2\n              sub\n              swap1\n              log1\n                /* \"ReceivePayment.sol\":2374:2386  State.Closed */\n              0x02\n                /* \"ReceivePayment.sol\":2366:2371  state */\n              0x03\n              0x14\n                /* \"ReceivePayment.sol\":2366:2386  state = State.Closed */\n              0x0100\n              exp\n              dup2\n              sload\n              dup2\n              0xff\n              mul\n              not\n              and\n              swap1\n              dup4\n              0x02\n              dup2\n              gt\n              iszero\n              tag_70\n              jumpi\n              tag_71\n              tag_52\n              jump\t// in\n            tag_71:\n            tag_70:\n              mul\n              or\n              swap1\n              sstore\n              pop\n                /* \"ReceivePayment.sol\":1368:1369  _ */\n              pop\n                /* \"ReceivePayment.sol\":2267:2393  function decline() public restrictedBuyer inState(State.Created) {... */\n              jump\t// out\n                /* \"ReceivePayment.sol\":740:758  State public state */\n            tag_34:\n              0x03\n              0x14\n              swap1\n              sload\n              swap1\n              0x0100\n              exp\n              swap1\n              div\n              0xff\n              and\n              dup2\n              jump\t// out\n                /* \"ReceivePayment.sol\":2855:3007  function releasePayment() public restrictedForwarder {... */\n            tag_39:\n                /* \"ReceivePayment.sol\":1197:1206  forwarder */\n              0x03\n              0x00\n              swap1\n              sload\n              swap1\n              0x0100\n              exp\n              swap1\n              div\n              0xffffffffffffffffffffffffffffffffffffffff\n              and\n                /* \"ReceivePayment.sol\":1183:1206  msg.sender != forwarder */\n              0xffffffffffffffffffffffffffffffffffffffff\n              and\n                /* \"ReceivePayment.sol\":1183:1193  msg.sender */\n              caller\n                /* \"ReceivePayment.sol\":1183:1206  msg.sender != forwarder */\n              0xffffffffffffffffffffffffffffffffffffffff\n              and\n              eq\n                /* \"ReceivePayment.sol\":1179:1242  if (msg.sender != forwarder)... */\n              tag_73\n              jumpi\n                /* \"ReceivePayment.sol\":1227:1242  OnlyForwarder() */\n              mload(0x40)\n              0xa73d374100000000000000000000000000000000000000000000000000000000\n              dup2\n              mstore\n              0x04\n              add\n              mload(0x40)\n              dup1\n              swap2\n              sub\n              swap1\n              revert\n                /* \"ReceivePayment.sol\":1179:1242  if (msg.sender != forwarder)... */\n            tag_73:\n                /* \"ReceivePayment.sol\":2923:2938  ItemDelivered() */\n              0xa2fae33f8c056851788af80f3dd0e5d1a21763cde2779f56905c10fc8517921c\n              mload(0x40)\n              mload(0x40)\n              dup1\n              swap2\n              sub\n              swap1\n              log1\n                /* \"ReceivePayment.sol\":2956:2968  State.Closed */\n              0x02\n                /* \"ReceivePayment.sol\":2948:2953  state */\n              0x03\n              0x14\n                /* \"ReceivePayment.sol\":2948:2968  state = State.Closed */\n              0x0100\n              exp\n              dup2\n              sload\n              dup2\n              0xff\n              mul\n              not\n              and\n              swap1\n              dup4\n              0x02\n              dup2\n              gt\n              iszero\n              tag_75\n              jumpi\n              tag_76\n              tag_52\n              jump\t// in\n            tag_76:\n            tag_75:\n              mul\n              or\n              swap1\n              sstore\n              pop\n                /* \"ReceivePayment.sol\":2978:2984  seller */\n              0x01\n              0x00\n              swap1\n              sload\n              swap1\n              0x0100\n              exp\n              swap1\n              div\n              0xffffffffffffffffffffffffffffffffffffffff\n              and\n                /* \"ReceivePayment.sol\":2978:2993  seller.transfer */\n              0xffffffffffffffffffffffffffffffffffffffff\n              and\n                /* \"ReceivePayment.sol\":2978:3000  seller.transfer(value) */\n              0x08fc\n                /* \"ReceivePayment.sol\":2994:2999  value */\n              sload(0x00)\n                /* \"ReceivePayment.sol\":2978:3000  seller.transfer(value) */\n              swap1\n              dup2\n              iszero\n              mul\n              swap1\n              mload(0x40)\n              0x00\n              mload(0x40)\n              dup1\n              dup4\n              sub\n              dup2\n              dup6\n              dup9\n              dup9\n              call\n              swap4\n              pop\n              pop\n              pop\n              pop\n              iszero\n              dup1\n              iszero\n              tag_78\n              jumpi\n              returndatasize\n              0x00\n              dup1\n              returndatacopy\n              revert(0x00, returndatasize)\n            tag_78:\n              pop\n                /* \"ReceivePayment.sol\":2855:3007  function releasePayment() public restrictedForwarder {... */\n              jump\t// out\n                /* \"ReceivePayment.sol\":2548:2758  function confirmPurchase() public inState(State.Created) payable {... */\n            tag_41:\n                /* \"ReceivePayment.sol\":2590:2603  State.Created */\n              0x00\n                /* \"ReceivePayment.sol\":1436:1442  _state */\n              dup1\n                /* \"ReceivePayment.sol\":1427:1442  state != _state */\n              0x02\n              dup2\n              gt\n              iszero\n              tag_80\n              jumpi\n              tag_81\n              tag_52\n              jump\t// in\n            tag_81:\n            tag_80:\n                /* \"ReceivePayment.sol\":1427:1432  state */\n              0x03\n              0x14\n              swap1\n              sload\n              swap1\n              0x0100\n              exp\n              swap1\n              div\n              0xff\n              and\n                /* \"ReceivePayment.sol\":1427:1442  state != _state */\n              0x02\n              dup2\n              gt\n              iszero\n              tag_82\n              jumpi\n              tag_83\n              tag_52\n              jump\t// in\n            tag_83:\n            tag_82:\n              eq\n                /* \"ReceivePayment.sol\":1423:1477  if (state != _state)... */\n              tag_84\n              jumpi\n                /* \"ReceivePayment.sol\":1463:1477  InvalidState() */\n              mload(0x40)\n              0xbaf3f0f700000000000000000000000000000000000000000000000000000000\n              dup2\n              mstore\n              0x04\n              add\n              mload(0x40)\n              dup1\n              swap2\n              sub\n              swap1\n              revert\n                /* \"ReceivePayment.sol\":1423:1477  if (state != _state)... */\n            tag_84:\n                /* \"ReceivePayment.sol\":2644:2649  value */\n              sload(0x00)\n                /* \"ReceivePayment.sol\":2631:2640  msg.value */\n              callvalue\n                /* \"ReceivePayment.sol\":2631:2649  msg.value == value */\n              eq\n                /* \"ReceivePayment.sol\":2623:2650  require(msg.value == value) */\n              tag_86\n              jumpi\n              0x00\n              dup1\n              revert\n            tag_86:\n                /* \"ReceivePayment.sol\":2665:2684  PurchaseConfirmed() */\n              0xd5d55c8a68912e9a110618df8d5e2e83b8d83211c57a8ddd1203df92885dc881\n              mload(0x40)\n              mload(0x40)\n              dup1\n              swap2\n              sub\n              swap1\n              log1\n                /* \"ReceivePayment.sol\":2710:2720  msg.sender */\n              caller\n                /* \"ReceivePayment.sol\":2694:2699  buyer */\n              0x02\n              0x00\n                /* \"ReceivePayment.sol\":2694:2721  buyer = payable(msg.sender) */\n              0x0100\n              exp\n              dup2\n              sload\n              dup2\n              0xffffffffffffffffffffffffffffffffffffffff\n              mul\n              not\n              and\n              swap1\n              dup4\n              0xffffffffffffffffffffffffffffffffffffffff\n              and\n              mul\n              or\n              swap1\n              sstore\n              pop\n                /* \"ReceivePayment.sol\":2739:2751  State.Locked */\n              0x01\n                /* \"ReceivePayment.sol\":2731:2736  state */\n              0x03\n              0x14\n                /* \"ReceivePayment.sol\":2731:2751  state = State.Locked */\n              0x0100\n              exp\n              dup2\n              sload\n              dup2\n              0xff\n              mul\n              not\n              and\n              swap1\n              dup4\n              0x02\n              dup2\n              gt\n              iszero\n              tag_87\n              jumpi\n              tag_88\n              tag_52\n              jump\t// in\n            tag_88:\n            tag_87:\n              mul\n              or\n              swap1\n              sstore\n              pop\n                /* \"ReceivePayment.sol\":2548:2758  function confirmPurchase() public inState(State.Created) payable {... */\n              pop\n              jump\t// out\n                /* \"ReceivePayment.sol\":583:607  address public forwarder */\n            tag_44:\n              0x03\n              0x00\n              swap1\n              sload\n              swap1\n              0x0100\n              exp\n              swap1\n              div\n              0xffffffffffffffffffffffffffffffffffffffff\n              and\n              dup2\n              jump\t// out\n                /* \"#utility.yul\":7:149   */\n            tag_90:\n                /* \"#utility.yul\":110:142   */\n              tag_92\n                /* \"#utility.yul\":136:141   */\n              dup2\n                /* \"#utility.yul\":110:142   */\n              tag_93\n              jump\t// in\n            tag_92:\n                /* \"#utility.yul\":105:108   */\n              dup3\n                /* \"#utility.yul\":98:143   */\n              mstore\n                /* \"#utility.yul\":7:149   */\n              pop\n              pop\n              jump\t// out\n                /* \"#utility.yul\":155:273   */\n            tag_94:\n                /* \"#utility.yul\":242:266   */\n              tag_96\n                /* \"#utility.yul\":260:265   */\n              dup2\n                /* \"#utility.yul\":242:266   */\n              tag_97\n              jump\t// in\n            tag_96:\n                /* \"#utility.yul\":237:240   */\n              dup3\n                /* \"#utility.yul\":230:267   */\n              mstore\n                /* \"#utility.yul\":155:273   */\n              pop\n              pop\n              jump\t// out\n                /* \"#utility.yul\":279:422   */\n            tag_98:\n                /* \"#utility.yul\":372:415   */\n              tag_100\n                /* \"#utility.yul\":409:414   */\n              dup2\n                /* \"#utility.yul\":372:415   */\n              tag_101\n              jump\t// in\n            tag_100:\n                /* \"#utility.yul\":367:370   */\n              dup3\n                /* \"#utility.yul\":360:416   */\n              mstore\n                /* \"#utility.yul\":279:422   */\n              pop\n              pop\n              jump\t// out\n                /* \"#utility.yul\":428:546   */\n            tag_102:\n                /* \"#utility.yul\":515:539   */\n              tag_104\n                /* \"#utility.yul\":533:538   */\n              dup2\n                /* \"#utility.yul\":515:539   */\n              tag_105\n              jump\t// in\n            tag_104:\n                /* \"#utility.yul\":510:513   */\n              dup3\n                /* \"#utility.yul\":503:540   */\n              mstore\n                /* \"#utility.yul\":428:546   */\n              pop\n              pop\n              jump\t// out\n                /* \"#utility.yul\":552:774   */\n            tag_46:\n                /* \"#utility.yul\":645:649   */\n              0x00\n                /* \"#utility.yul\":683:685   */\n              0x20\n                /* \"#utility.yul\":672:681   */\n              dup3\n                /* \"#utility.yul\":668:686   */\n              add\n                /* \"#utility.yul\":660:686   */\n              swap1\n              pop\n                /* \"#utility.yul\":696:767   */\n              tag_107\n                /* \"#utility.yul\":764:765   */\n              0x00\n                /* \"#utility.yul\":753:762   */\n              dup4\n                /* \"#utility.yul\":749:766   */\n              add\n                /* \"#utility.yul\":740:746   */\n              dup5\n                /* \"#utility.yul\":696:767   */\n              tag_94\n              jump\t// in\n            tag_107:\n                /* \"#utility.yul\":552:774   */\n              swap3\n              swap2\n              pop\n              pop\n              jump\t// out\n                /* \"#utility.yul\":780:1034   */\n            tag_16:\n                /* \"#utility.yul\":889:893   */\n              0x00\n                /* \"#utility.yul\":927:929   */\n              0x20\n                /* \"#utility.yul\":916:925   */\n              dup3\n                /* \"#utility.yul\":912:930   */\n              add\n                /* \"#utility.yul\":904:930   */\n              swap1\n              pop\n                /* \"#utility.yul\":940:1027   */\n              tag_109\n                /* \"#utility.yul\":1024:1025   */\n              0x00\n                /* \"#utility.yul\":1013:1022   */\n              dup4\n                /* \"#utility.yul\":1009:1026   */\n              add\n                /* \"#utility.yul\":1000:1006   */\n              dup5\n                /* \"#utility.yul\":940:1027   */\n              tag_90\n              jump\t// in\n            tag_109:\n                /* \"#utility.yul\":780:1034   */\n              swap3\n              swap2\n              pop\n              pop\n              jump\t// out\n                /* \"#utility.yul\":1040:1274   */\n            tag_36:\n                /* \"#utility.yul\":1139:1143   */\n              0x00\n                /* \"#utility.yul\":1177:1179   */\n              0x20\n                /* \"#utility.yul\":1166:1175   */\n              dup3\n                /* \"#utility.yul\":1162:1180   */\n              add\n                /* \"#utility.yul\":1154:1180   */\n              swap1\n              pop\n                /* \"#utility.yul\":1190:1267   */\n              tag_111\n                /* \"#utility.yul\":1264:1265   */\n              0x00\n                /* \"#utility.yul\":1253:1262   */\n              dup4\n                /* \"#utility.yul\":1249:1266   */\n              add\n                /* \"#utility.yul\":1240:1246   */\n              dup5\n                /* \"#utility.yul\":1190:1267   */\n              tag_98\n              jump\t// in\n            tag_111:\n                /* \"#utility.yul\":1040:1274   */\n              swap3\n              swap2\n              pop\n              pop\n              jump\t// out\n                /* \"#utility.yul\":1280:1502   */\n            tag_24:\n                /* \"#utility.yul\":1373:1377   */\n              0x00\n                /* \"#utility.yul\":1411:1413   */\n              0x20\n                /* \"#utility.yul\":1400:1409   */\n              dup3\n                /* \"#utility.yul\":1396:1414   */\n              add\n                /* \"#utility.yul\":1388:1414   */\n              swap1\n              pop\n                /* \"#utility.yul\":1424:1495   */\n              tag_113\n                /* \"#utility.yul\":1492:1493   */\n              0x00\n                /* \"#utility.yul\":1481:1490   */\n              dup4\n                /* \"#utility.yul\":1477:1494   */\n              add\n                /* \"#utility.yul\":1468:1474   */\n              dup5\n                /* \"#utility.yul\":1424:1495   */\n              tag_102\n              jump\t// in\n            tag_113:\n                /* \"#utility.yul\":1280:1502   */\n              swap3\n              swap2\n              pop\n              pop\n              jump\t// out\n                /* \"#utility.yul\":1508:1604   */\n            tag_97:\n                /* \"#utility.yul\":1545:1552   */\n              0x00\n                /* \"#utility.yul\":1574:1598   */\n              tag_115\n                /* \"#utility.yul\":1592:1597   */\n              dup3\n                /* \"#utility.yul\":1574:1598   */\n              tag_116\n              jump\t// in\n            tag_115:\n                /* \"#utility.yul\":1563:1598   */\n              swap1\n              pop\n                /* \"#utility.yul\":1508:1604   */\n              swap2\n              swap1\n              pop\n              jump\t// out\n                /* \"#utility.yul\":1610:1714   */\n            tag_93:\n                /* \"#utility.yul\":1655:1662   */\n              0x00\n                /* \"#utility.yul\":1684:1708   */\n              tag_118\n                /* \"#utility.yul\":1702:1707   */\n              dup3\n                /* \"#utility.yul\":1684:1708   */\n              tag_116\n              jump\t// in\n            tag_118:\n                /* \"#utility.yul\":1673:1708   */\n              swap1\n              pop\n                /* \"#utility.yul\":1610:1714   */\n              swap2\n              swap1\n              pop\n              jump\t// out\n                /* \"#utility.yul\":1720:1847   */\n            tag_119:\n                /* \"#utility.yul\":1765:1772   */\n              0x00\n                /* \"#utility.yul\":1794:1799   */\n              dup2\n                /* \"#utility.yul\":1783:1799   */\n              swap1\n              pop\n                /* \"#utility.yul\":1800:1841   */\n              tag_121\n                /* \"#utility.yul\":1835:1840   */\n              dup3\n                /* \"#utility.yul\":1800:1841   */\n              tag_122\n              jump\t// in\n            tag_121:\n                /* \"#utility.yul\":1720:1847   */\n              swap2\n              swap1\n              pop\n              jump\t// out\n                /* \"#utility.yul\":1853:1979   */\n            tag_116:\n                /* \"#utility.yul\":1890:1897   */\n              0x00\n                /* \"#utility.yul\":1930:1972   */\n              0xffffffffffffffffffffffffffffffffffffffff\n                /* \"#utility.yul\":1923:1928   */\n              dup3\n                /* \"#utility.yul\":1919:1973   */\n              and\n                /* \"#utility.yul\":1908:1973   */\n              swap1\n              pop\n                /* \"#utility.yul\":1853:1979   */\n              swap2\n              swap1\n              pop\n              jump\t// out\n                /* \"#utility.yul\":1985:2062   */\n            tag_105:\n                /* \"#utility.yul\":2022:2029   */\n              0x00\n                /* \"#utility.yul\":2051:2056   */\n              dup2\n                /* \"#utility.yul\":2040:2056   */\n              swap1\n              pop\n                /* \"#utility.yul\":1985:2062   */\n              swap2\n              swap1\n              pop\n              jump\t// out\n                /* \"#utility.yul\":2068:2195   */\n            tag_101:\n                /* \"#utility.yul\":2124:2133   */\n              0x00\n                /* \"#utility.yul\":2157:2189   */\n              tag_126\n                /* \"#utility.yul\":2183:2188   */\n              dup3\n                /* \"#utility.yul\":2157:2189   */\n              tag_119\n              jump\t// in\n            tag_126:\n                /* \"#utility.yul\":2144:2189   */\n              swap1\n              pop\n                /* \"#utility.yul\":2068:2195   */\n              swap2\n              swap1\n              pop\n              jump\t// out\n                /* \"#utility.yul\":2201:2381   */\n            tag_52:\n                /* \"#utility.yul\":2249:2326   */\n              0x4e487b7100000000000000000000000000000000000000000000000000000000\n                /* \"#utility.yul\":2246:2247   */\n              0x00\n                /* \"#utility.yul\":2239:2327   */\n              mstore\n                /* \"#utility.yul\":2346:2350   */\n              0x21\n                /* \"#utility.yul\":2343:2344   */\n              0x04\n                /* \"#utility.yul\":2336:2351   */\n              mstore\n                /* \"#utility.yul\":2370:2374   */\n              0x24\n                /* \"#utility.yul\":2367:2368   */\n              0x00\n                /* \"#utility.yul\":2360:2375   */\n              revert\n                /* \"#utility.yul\":2387:2500   */\n            tag_122:\n                /* \"#utility.yul\":2468:2469   */\n              0x03\n                /* \"#utility.yul\":2461:2466   */\n              dup2\n                /* \"#utility.yul\":2458:2470   */\n              lt\n                /* \"#utility.yul\":2448:2494   */\n              tag_129\n              jumpi\n                /* \"#utility.yul\":2474:2492   */\n              tag_130\n              tag_52\n              jump\t// in\n            tag_130:\n                /* \"#utility.yul\":2448:2494   */\n            tag_129:\n                /* \"#utility.yul\":2387:2500   */\n              pop\n              jump\t// out\n\n            auxdata: 0xa26469706673582212200c9de8ebc4136e525883d726db74dc5300efb92965f69c0c6e6d187520d7593c64736f6c63430008070033\n        }\n    }\n\n    auxdata: 0xa2646970667358221220687ec3c374fd1d333293255973396472c39a26ab21bcb6d792b574f9c65c536a64736f6c63430008070033\n}\n",
    "bytecode": {
      "linkReferences": {},
      "object": "608060405234801561001057600080fd5b50610fe9806100206000396000f3fe608060405234801561001057600080fd5b50600436106100415760003560e01c80632f51e58c146100465780634005ec3d14610062578063f832f94a14610080575b600080fd5b610060600480360381019061005b9190610285565b6100b0565b005b61006a610154565b6040516100779190610377565b60405180910390f35b61009a60048036038101906100959190610258565b6101e2565b6040516100a79190610399565b60405180910390f35b60008233836040516100c190610221565b6100cd939291906103b4565b604051809103906000f0801580156100e9573d6000803e3d6000fd5b5090506000819080600181540180825580915050600190039060005260206000200160009091909190916101000a81548173ffffffffffffffffffffffffffffffffffffffff021916908373ffffffffffffffffffffffffffffffffffffffff160217905550505050565b606060008054806020026020016040519081016040528092919081815260200182805480156101d857602002820191906000526020600020905b8160009054906101000a900473ffffffffffffffffffffffffffffffffffffffff1673ffffffffffffffffffffffffffffffffffffffff168152602001906001019080831161018e575b5050505050905090565b600081815481106101f257600080fd5b906000526020600020016000915054906101000a900473ffffffffffffffffffffffffffffffffffffffff1681565b610aea806104ca83390190565b60008135905061023d8161049b565b92915050565b600081359050610252816104b2565b92915050565b60006020828403121561026e5761026d610496565b5b600061027c84828501610243565b91505092915050565b6000806040838503121561029c5761029b610496565b5b60006102aa85828601610243565b92505060206102bb8582860161022e565b9150509250929050565b60006102d1838361034a565b60208301905092915050565b6102e681610424565b82525050565b60006102f7826103fb565b6103018185610413565b935061030c836103eb565b8060005b8381101561033d57815161032488826102c5565b975061032f83610406565b925050600181019050610310565b5085935050505092915050565b61035381610460565b82525050565b61036281610460565b82525050565b61037181610456565b82525050565b6000602082019050818103600083015261039181846102ec565b905092915050565b60006020820190506103ae6000830184610359565b92915050565b60006060820190506103c96000830186610368565b6103d660208301856102dd565b6103e360408301846102dd565b949350505050565b6000819050602082019050919050565b600081519050919050565b6000602082019050919050565b600082825260208201905092915050565b600061042f82610436565b9050919050565b600073ffffffffffffffffffffffffffffffffffffffff82169050919050565b6000819050919050565b600061046b82610472565b9050919050565b600061047d82610484565b9050919050565b600061048f82610436565b9050919050565b600080fd5b6104a481610424565b81146104af57600080fd5b50565b6104bb81610456565b81146104c657600080fd5b5056fe6080604052604051610aea380380610aea833981810160405281019061002591906100e0565b81600160006101000a81548173ffffffffffffffffffffffffffffffffffffffff021916908373ffffffffffffffffffffffffffffffffffffffff16021790555080600360006101000a81548173ffffffffffffffffffffffffffffffffffffffff021916908373ffffffffffffffffffffffffffffffffffffffff160217905550826000819055505050506101a2565b6000815190506100c581610174565b92915050565b6000815190506100da8161018b565b92915050565b6000806000606084860312156100f9576100f861016f565b5b6000610107868287016100cb565b9350506020610118868287016100b6565b9250506040610129868287016100b6565b9150509250925092565b600061013e82610145565b9050919050565b600073ffffffffffffffffffffffffffffffffffffffff82169050919050565b6000819050919050565b600080fd5b61017d81610133565b811461018857600080fd5b50565b61019481610165565b811461019f57600080fd5b50565b610939806101b16000396000f3fe6080604052600436106100865760003560e01c8063ab04010711610059578063ab04010714610123578063c19d93fb1461013a578063d116c8c414610165578063d69606971461017c578063f645d4f91461018657610086565b806308551a531461008b57806335a063b4146100b65780633fa4f245146100cd5780637150d8ae146100f8575b600080fd5b34801561009757600080fd5b506100a06101b1565b6040516100ad91906107fc565b60405180910390f35b3480156100c257600080fd5b506100cb6101d7565b005b3480156100d957600080fd5b506100e261038f565b6040516100ef9190610832565b60405180910390f35b34801561010457600080fd5b5061010d610395565b60405161011a91906107fc565b60405180910390f35b34801561012f57600080fd5b506101386103bb565b005b34801561014657600080fd5b5061014f61050a565b60405161015c9190610817565b60405180910390f35b34801561017157600080fd5b5061017a61051d565b005b610184610668565b005b34801561019257600080fd5b5061019b61077f565b6040516101a891906107e1565b60405180910390f35b600160009054906101000a900473ffffffffffffffffffffffffffffffffffffffff1681565b600160009054906101000a900473ffffffffffffffffffffffffffffffffffffffff1673ffffffffffffffffffffffffffffffffffffffff163373ffffffffffffffffffffffffffffffffffffffff161461025e576040517f85d1f72600000000000000000000000000000000000000000000000000000000815260040160405180910390fd5b6000806002811115610273576102726108c0565b5b600360149054906101000a900460ff166002811115610295576102946108c0565b5b146102cc576040517fbaf3f0f700000000000000000000000000000000000000000000000000000000815260040160405180910390fd5b7f72c874aeff0b183a56e2b79c71b46e1aed4dee5e09862134b8821ba2fddbf8bf60405160405180910390a16002600360146101000a81548160ff0219169083600281111561031e5761031d6108c0565b5b0217905550600160009054906101000a900473ffffffffffffffffffffffffffffffffffffffff1673ffffffffffffffffffffffffffffffffffffffff166108fc479081150290604051600060405180830381858888f1935050505015801561038b573d6000803e3d6000fd5b5050565b60005481565b600260009054906101000a900473ffffffffffffffffffffffffffffffffffffffff1681565b600260009054906101000a900473ffffffffffffffffffffffffffffffffffffffff1673ffffffffffffffffffffffffffffffffffffffff163373ffffffffffffffffffffffffffffffffffffffff1614610442576040517f86efbb5500000000000000000000000000000000000000000000000000000000815260040160405180910390fd5b6000806002811115610457576104566108c0565b5b600360149054906101000a900460ff166002811115610479576104786108c0565b5b146104b0576040517fbaf3f0f700000000000000000000000000000000000000000000000000000000815260040160405180910390fd5b7f72c874aeff0b183a56e2b79c71b46e1aed4dee5e09862134b8821ba2fddbf8bf60405160405180910390a16002600360146101000a81548160ff02191690836002811115610502576105016108c0565b5b021790555050565b600360149054906101000a900460ff1681565b600360009054906101000a900473ffffffffffffffffffffffffffffffffffffffff1673ffffffffffffffffffffffffffffffffffffffff163373ffffffffffffffffffffffffffffffffffffffff16146105a4576040517fa73d374100000000000000000000000000000000000000000000000000000000815260040160405180910390fd5b7fa2fae33f8c056851788af80f3dd0e5d1a21763cde2779f56905c10fc8517921c60405160405180910390a16002600360146101000a81548160ff021916908360028111156105f6576105f56108c0565b5b0217905550600160009054906101000a900473ffffffffffffffffffffffffffffffffffffffff1673ffffffffffffffffffffffffffffffffffffffff166108fc6000549081150290604051600060405180830381858888f19350505050158015610665573d6000803e3d6000fd5b50565b600080600281111561067d5761067c6108c0565b5b600360149054906101000a900460ff16600281111561069f5761069e6108c0565b5b146106d6576040517fbaf3f0f700000000000000000000000000000000000000000000000000000000815260040160405180910390fd5b60005434146106e457600080fd5b7fd5d55c8a68912e9a110618df8d5e2e83b8d83211c57a8ddd1203df92885dc88160405160405180910390a133600260006101000a81548173ffffffffffffffffffffffffffffffffffffffff021916908373ffffffffffffffffffffffffffffffffffffffff1602179055506001600360146101000a81548160ff02191690836002811115610777576107766108c0565b5b021790555050565b600360009054906101000a900473ffffffffffffffffffffffffffffffffffffffff1681565b6107ae8161085f565b82525050565b6107bd8161084d565b82525050565b6107cc816108ae565b82525050565b6107db816108a4565b82525050565b60006020820190506107f660008301846107b4565b92915050565b600060208201905061081160008301846107a5565b92915050565b600060208201905061082c60008301846107c3565b92915050565b600060208201905061084760008301846107d2565b92915050565b600061085882610884565b9050919050565b600061086a82610884565b9050919050565b600081905061087f826108ef565b919050565b600073ffffffffffffffffffffffffffffffffffffffff82169050919050565b6000819050919050565b60006108b982610871565b9050919050565b7f4e487b7100000000000000000000000000000000000000000000000000000000600052602160045260246000fd5b60038110610900576108ff6108c0565b5b5056fea26469706673582212200c9de8ebc4136e525883d726db74dc5300efb92965f69c0c6e6d187520d7593c64736f6c63430008070033a2646970667358221220687ec3c374fd1d333293255973396472c39a26ab21bcb6d792b574f9c65c536a64736f6c63430008070033",
      "opcodes": "PUSH1 0x80 PUSH1 0x40 MSTORE CALLVALUE DUP1 ISZERO PUSH2 0x10 JUMPI PUSH1 0x0 DUP1 REVERT JUMPDEST POP PUSH2 0xFE9 DUP1 PUSH2 0x20 PUSH1 0x0 CODECOPY PUSH1 0x0 RETURN INVALID PUSH1 0x80 PUSH1 0x40 MSTORE CALLVALUE DUP1 ISZERO PUSH2 0x10 JUMPI PUSH1 0x0 DUP1 REVERT JUMPDEST POP PUSH1 0x4 CALLDATASIZE LT PUSH2 0x41 JUMPI PUSH1 0x0 CALLDATALOAD PUSH1 0xE0 SHR DUP1 PUSH4 0x2F51E58C EQ PUSH2 0x46 JUMPI DUP1 PUSH4 0x4005EC3D EQ PUSH2 0x62 JUMPI DUP1 PUSH4 0xF832F94A EQ PUSH2 0x80 JUMPI JUMPDEST PUSH1 0x0 DUP1 REVERT JUMPDEST PUSH2 0x60 PUSH1 0x4 DUP1 CALLDATASIZE SUB DUP2 ADD SWAP1 PUSH2 0x5B SWAP2 SWAP1 PUSH2 0x285 JUMP JUMPDEST PUSH2 0xB0 JUMP JUMPDEST STOP JUMPDEST PUSH2 0x6A PUSH2 0x154 JUMP JUMPDEST PUSH1 0x40 MLOAD PUSH2 0x77 SWAP2 SWAP1 PUSH2 0x377 JUMP JUMPDEST PUSH1 0x40 MLOAD DUP1 SWAP2 SUB SWAP1 RETURN JUMPDEST PUSH2 0x9A PUSH1 0x4 DUP1 CALLDATASIZE SUB DUP2 ADD SWAP1 PUSH2 0x95 SWAP2 SWAP1 PUSH2 0x258 JUMP JUMPDEST PUSH2 0x1E2 JUMP JUMPDEST PUSH1 0x40 MLOAD PUSH2 0xA7 SWAP2 SWAP1 PUSH2 0x399 JUMP JUMPDEST PUSH1 0x40 MLOAD DUP1 SWAP2 SUB SWAP1 RETURN JUMPDEST PUSH1 0x0 DUP3 CALLER DUP4 PUSH1 0x40 MLOAD PUSH2 0xC1 SWAP1 PUSH2 0x221 JUMP JUMPDEST PUSH2 0xCD SWAP4 SWAP3 SWAP2 SWAP1 PUSH2 0x3B4 JUMP JUMPDEST PUSH1 0x40 MLOAD DUP1 SWAP2 SUB SWAP1 PUSH1 0x0 CREATE DUP1 ISZERO DUP1 ISZERO PUSH2 0xE9 JUMPI RETURNDATASIZE PUSH1 0x0 DUP1 RETURNDATACOPY RETURNDATASIZE PUSH1 0x0 REVERT JUMPDEST POP SWAP1 POP PUSH1 0x0 DUP2 SWAP1 DUP1 PUSH1 0x1 DUP2 SLOAD ADD DUP1 DUP3 SSTORE DUP1 SWAP2 POP POP PUSH1 0x1 SWAP1 SUB SWAP1 PUSH1 0x0 MSTORE PUSH1 0x20 PUSH1 0x0 KECCAK256 ADD PUSH1 0x0 SWAP1 SWAP2 SWAP1 SWAP2 SWAP1 SWAP2 PUSH2 0x100 EXP DUP2 SLOAD DUP2 PUSH20 0xFFFFFFFFFFFFFFFFFFFFFFFFFFFFFFFFFFFFFFFF MUL NOT AND SWAP1 DUP4 PUSH20 0xFFFFFFFFFFFFFFFFFFFFFFFFFFFFFFFFFFFFFFFF AND MUL OR SWAP1 SSTORE POP POP POP POP JUMP JUMPDEST PUSH1 0x60 PUSH1 0x0 DUP1 SLOAD DUP1 PUSH1 0x20 MUL PUSH1 0x20 ADD PUSH1 0x40 MLOAD SWAP1 DUP2 ADD PUSH1 0x40 MSTORE DUP1 SWAP3 SWAP2 SWAP1 DUP2 DUP2 MSTORE PUSH1 0x20 ADD DUP3 DUP1 SLOAD DUP1 ISZERO PUSH2 0x1D8 JUMPI PUSH1 0x20 MUL DUP3 ADD SWAP2 SWAP1 PUSH1 0x0 MSTORE PUSH1 0x20 PUSH1 0x0 KECCAK256 SWAP1 JUMPDEST DUP2 PUSH1 0x0 SWAP1 SLOAD SWAP1 PUSH2 0x100 EXP SWAP1 DIV PUSH20 0xFFFFFFFFFFFFFFFFFFFFFFFFFFFFFFFFFFFFFFFF AND PUSH20 0xFFFFFFFFFFFFFFFFFFFFFFFFFFFFFFFFFFFFFFFF AND DUP2 MSTORE PUSH1 0x20 ADD SWAP1 PUSH1 0x1 ADD SWAP1 DUP1 DUP4 GT PUSH2 0x18E JUMPI JUMPDEST POP POP POP POP POP SWAP1 POP SWAP1 JUMP JUMPDEST PUSH1 0x0 DUP2 DUP2 SLOAD DUP2 LT PUSH2 0x1F2 JUMPI PUSH1 0x0 DUP1 REVERT JUMPDEST SWAP1 PUSH1 0x0 MSTORE PUSH1 0x20 PUSH1 0x0 KECCAK256 ADD PUSH1 0x0 SWAP2 POP SLOAD SWAP1 PUSH2 0x100 EXP SWAP1 DIV PUSH20 0xFFFFFFFFFFFFFFFFFFFFFFFFFFFFFFFFFFFFFFFF AND DUP2 JUMP JUMPDEST PUSH2 0xAEA DUP1 PUSH2 0x4CA DUP4 CODECOPY ADD SWAP1 JUMP JUMPDEST PUSH1 0x0 DUP2 CALLDATALOAD SWAP1 POP PUSH2 0x23D DUP2 PUSH2 0x49B JUMP JUMPDEST SWAP3 SWAP2 POP POP JUMP JUMPDEST PUSH1 0x0 DUP2 CALLDATALOAD SWAP1 POP PUSH2 0x252 DUP2 PUSH2 0x4B2 JUMP JUMPDEST SWAP3 SWAP2 POP POP JUMP JUMPDEST PUSH1 0x0 PUSH1 0x20 DUP3 DUP5 SUB SLT ISZERO PUSH2 0x26E JUMPI PUSH2 0x26D PUSH2 0x496 JUMP JUMPDEST JUMPDEST PUSH1 0x0 PUSH2 0x27C DUP5 DUP3 DUP6 ADD PUSH2 0x243 JUMP JUMPDEST SWAP2 POP POP SWAP3 SWAP2 POP POP JUMP JUMPDEST PUSH1 0x0 DUP1 PUSH1 0x40 DUP4 DUP6 SUB SLT ISZERO PUSH2 0x29C JUMPI PUSH2 0x29B PUSH2 0x496 JUMP JUMPDEST JUMPDEST PUSH1 0x0 PUSH2 0x2AA DUP6 DUP3 DUP7 ADD PUSH2 0x243 JUMP JUMPDEST SWAP3 POP POP PUSH1 0x20 PUSH2 0x2BB DUP6 DUP3 DUP7 ADD PUSH2 0x22E JUMP JUMPDEST SWAP2 POP POP SWAP3 POP SWAP3 SWAP1 POP JUMP JUMPDEST PUSH1 0x0 PUSH2 0x2D1 DUP4 DUP4 PUSH2 0x34A JUMP JUMPDEST PUSH1 0x20 DUP4 ADD SWAP1 POP SWAP3 SWAP2 POP POP JUMP JUMPDEST PUSH2 0x2E6 DUP2 PUSH2 0x424 JUMP JUMPDEST DUP3 MSTORE POP POP JUMP JUMPDEST PUSH1 0x0 PUSH2 0x2F7 DUP3 PUSH2 0x3FB JUMP JUMPDEST PUSH2 0x301 DUP2 DUP6 PUSH2 0x413 JUMP JUMPDEST SWAP4 POP PUSH2 0x30C DUP4 PUSH2 0x3EB JUMP JUMPDEST DUP1 PUSH1 0x0 JUMPDEST DUP4 DUP2 LT ISZERO PUSH2 0x33D JUMPI DUP2 MLOAD PUSH2 0x324 DUP9 DUP3 PUSH2 0x2C5 JUMP JUMPDEST SWAP8 POP PUSH2 0x32F DUP4 PUSH2 0x406 JUMP JUMPDEST SWAP3 POP POP PUSH1 0x1 DUP2 ADD SWAP1 POP PUSH2 0x310 JUMP JUMPDEST POP DUP6 SWAP4 POP POP POP POP SWAP3 SWAP2 POP POP JUMP JUMPDEST PUSH2 0x353 DUP2 PUSH2 0x460 JUMP JUMPDEST DUP3 MSTORE POP POP JUMP JUMPDEST PUSH2 0x362 DUP2 PUSH2 0x460 JUMP JUMPDEST DUP3 MSTORE POP POP JUMP JUMPDEST PUSH2 0x371 DUP2 PUSH2 0x456 JUMP JUMPDEST DUP3 MSTORE POP POP JUMP JUMPDEST PUSH1 0x0 PUSH1 0x20 DUP3 ADD SWAP1 POP DUP2 DUP2 SUB PUSH1 0x0 DUP4 ADD MSTORE PUSH2 0x391 DUP2 DUP5 PUSH2 0x2EC JUMP JUMPDEST SWAP1 POP SWAP3 SWAP2 POP POP JUMP JUMPDEST PUSH1 0x0 PUSH1 0x20 DUP3 ADD SWAP1 POP PUSH2 0x3AE PUSH1 0x0 DUP4 ADD DUP5 PUSH2 0x359 JUMP JUMPDEST SWAP3 SWAP2 POP POP JUMP JUMPDEST PUSH1 0x0 PUSH1 0x60 DUP3 ADD SWAP1 POP PUSH2 0x3C9 PUSH1 0x0 DUP4 ADD DUP7 PUSH2 0x368 JUMP JUMPDEST PUSH2 0x3D6 PUSH1 0x20 DUP4 ADD DUP6 PUSH2 0x2DD JUMP JUMPDEST PUSH2 0x3E3 PUSH1 0x40 DUP4 ADD DUP5 PUSH2 0x2DD JUMP JUMPDEST SWAP5 SWAP4 POP POP POP POP JUMP JUMPDEST PUSH1 0x0 DUP2 SWAP1 POP PUSH1 0x20 DUP3 ADD SWAP1 POP SWAP2 SWAP1 POP JUMP JUMPDEST PUSH1 0x0 DUP2 MLOAD SWAP1 POP SWAP2 SWAP1 POP JUMP JUMPDEST PUSH1 0x0 PUSH1 0x20 DUP3 ADD SWAP1 POP SWAP2 SWAP1 POP JUMP JUMPDEST PUSH1 0x0 DUP3 DUP3 MSTORE PUSH1 0x20 DUP3 ADD SWAP1 POP SWAP3 SWAP2 POP POP JUMP JUMPDEST PUSH1 0x0 PUSH2 0x42F DUP3 PUSH2 0x436 JUMP JUMPDEST SWAP1 POP SWAP2 SWAP1 POP JUMP JUMPDEST PUSH1 0x0 PUSH20 0xFFFFFFFFFFFFFFFFFFFFFFFFFFFFFFFFFFFFFFFF DUP3 AND SWAP1 POP SWAP2 SWAP1 POP JUMP JUMPDEST PUSH1 0x0 DUP2 SWAP1 POP SWAP2 SWAP1 POP JUMP JUMPDEST PUSH1 0x0 PUSH2 0x46B DUP3 PUSH2 0x472 JUMP JUMPDEST SWAP1 POP SWAP2 SWAP1 POP JUMP JUMPDEST PUSH1 0x0 PUSH2 0x47D DUP3 PUSH2 0x484 JUMP JUMPDEST SWAP1 POP SWAP2 SWAP1 POP JUMP JUMPDEST PUSH1 0x0 PUSH2 0x48F DUP3 PUSH2 0x436 JUMP JUMPDEST SWAP1 POP SWAP2 SWAP1 POP JUMP JUMPDEST PUSH1 0x0 DUP1 REVERT JUMPDEST PUSH2 0x4A4 DUP2 PUSH2 0x424 JUMP JUMPDEST DUP2 EQ PUSH2 0x4AF JUMPI PUSH1 0x0 DUP1 REVERT JUMPDEST POP JUMP JUMPDEST PUSH2 0x4BB DUP2 PUSH2 0x456 JUMP JUMPDEST DUP2 EQ PUSH2 0x4C6 JUMPI PUSH1 0x0 DUP1 REVERT JUMPDEST POP JUMP INVALID PUSH1 0x80 PUSH1 0x40 MSTORE PUSH1 0x40 MLOAD PUSH2 0xAEA CODESIZE SUB DUP1 PUSH2 0xAEA DUP4 CODECOPY DUP2 DUP2 ADD PUSH1 0x40 MSTORE DUP2 ADD SWAP1 PUSH2 0x25 SWAP2 SWAP1 PUSH2 0xE0 JUMP JUMPDEST DUP2 PUSH1 0x1 PUSH1 0x0 PUSH2 0x100 EXP DUP2 SLOAD DUP2 PUSH20 0xFFFFFFFFFFFFFFFFFFFFFFFFFFFFFFFFFFFFFFFF MUL NOT AND SWAP1 DUP4 PUSH20 0xFFFFFFFFFFFFFFFFFFFFFFFFFFFFFFFFFFFFFFFF AND MUL OR SWAP1 SSTORE POP DUP1 PUSH1 0x3 PUSH1 0x0 PUSH2 0x100 EXP DUP2 SLOAD DUP2 PUSH20 0xFFFFFFFFFFFFFFFFFFFFFFFFFFFFFFFFFFFFFFFF MUL NOT AND SWAP1 DUP4 PUSH20 0xFFFFFFFFFFFFFFFFFFFFFFFFFFFFFFFFFFFFFFFF AND MUL OR SWAP1 SSTORE POP DUP3 PUSH1 0x0 DUP2 SWAP1 SSTORE POP POP POP POP PUSH2 0x1A2 JUMP JUMPDEST PUSH1 0x0 DUP2 MLOAD SWAP1 POP PUSH2 0xC5 DUP2 PUSH2 0x174 JUMP JUMPDEST SWAP3 SWAP2 POP POP JUMP JUMPDEST PUSH1 0x0 DUP2 MLOAD SWAP1 POP PUSH2 0xDA DUP2 PUSH2 0x18B JUMP JUMPDEST SWAP3 SWAP2 POP POP JUMP JUMPDEST PUSH1 0x0 DUP1 PUSH1 0x0 PUSH1 0x60 DUP5 DUP7 SUB SLT ISZERO PUSH2 0xF9 JUMPI PUSH2 0xF8 PUSH2 0x16F JUMP JUMPDEST JUMPDEST PUSH1 0x0 PUSH2 0x107 DUP7 DUP3 DUP8 ADD PUSH2 0xCB JUMP JUMPDEST SWAP4 POP POP PUSH1 0x20 PUSH2 0x118 DUP7 DUP3 DUP8 ADD PUSH2 0xB6 JUMP JUMPDEST SWAP3 POP POP PUSH1 0x40 PUSH2 0x129 DUP7 DUP3 DUP8 ADD PUSH2 0xB6 JUMP JUMPDEST SWAP2 POP POP SWAP3 POP SWAP3 POP SWAP3 JUMP JUMPDEST PUSH1 0x0 PUSH2 0x13E DUP3 PUSH2 0x145 JUMP JUMPDEST SWAP1 POP SWAP2 SWAP1 POP JUMP JUMPDEST PUSH1 0x0 PUSH20 0xFFFFFFFFFFFFFFFFFFFFFFFFFFFFFFFFFFFFFFFF DUP3 AND SWAP1 POP SWAP2 SWAP1 POP JUMP JUMPDEST PUSH1 0x0 DUP2 SWAP1 POP SWAP2 SWAP1 POP JUMP JUMPDEST PUSH1 0x0 DUP1 REVERT JUMPDEST PUSH2 0x17D DUP2 PUSH2 0x133 JUMP JUMPDEST DUP2 EQ PUSH2 0x188 JUMPI PUSH1 0x0 DUP1 REVERT JUMPDEST POP JUMP JUMPDEST PUSH2 0x194 DUP2 PUSH2 0x165 JUMP JUMPDEST DUP2 EQ PUSH2 0x19F JUMPI PUSH1 0x0 DUP1 REVERT JUMPDEST POP JUMP JUMPDEST PUSH2 0x939 DUP1 PUSH2 0x1B1 PUSH1 0x0 CODECOPY PUSH1 0x0 RETURN INVALID PUSH1 0x80 PUSH1 0x40 MSTORE PUSH1 0x4 CALLDATASIZE LT PUSH2 0x86 JUMPI PUSH1 0x0 CALLDATALOAD PUSH1 0xE0 SHR DUP1 PUSH4 0xAB040107 GT PUSH2 0x59 JUMPI DUP1 PUSH4 0xAB040107 EQ PUSH2 0x123 JUMPI DUP1 PUSH4 0xC19D93FB EQ PUSH2 0x13A JUMPI DUP1 PUSH4 0xD116C8C4 EQ PUSH2 0x165 JUMPI DUP1 PUSH4 0xD6960697 EQ PUSH2 0x17C JUMPI DUP1 PUSH4 0xF645D4F9 EQ PUSH2 0x186 JUMPI PUSH2 0x86 JUMP JUMPDEST DUP1 PUSH4 0x8551A53 EQ PUSH2 0x8B JUMPI DUP1 PUSH4 0x35A063B4 EQ PUSH2 0xB6 JUMPI DUP1 PUSH4 0x3FA4F245 EQ PUSH2 0xCD JUMPI DUP1 PUSH4 0x7150D8AE EQ PUSH2 0xF8 JUMPI JUMPDEST PUSH1 0x0 DUP1 REVERT JUMPDEST CALLVALUE DUP1 ISZERO PUSH2 0x97 JUMPI PUSH1 0x0 DUP1 REVERT JUMPDEST POP PUSH2 0xA0 PUSH2 0x1B1 JUMP JUMPDEST PUSH1 0x40 MLOAD PUSH2 0xAD SWAP2 SWAP1 PUSH2 0x7FC JUMP JUMPDEST PUSH1 0x40 MLOAD DUP1 SWAP2 SUB SWAP1 RETURN JUMPDEST CALLVALUE DUP1 ISZERO PUSH2 0xC2 JUMPI PUSH1 0x0 DUP1 REVERT JUMPDEST POP PUSH2 0xCB PUSH2 0x1D7 JUMP JUMPDEST STOP JUMPDEST CALLVALUE DUP1 ISZERO PUSH2 0xD9 JUMPI PUSH1 0x0 DUP1 REVERT JUMPDEST POP PUSH2 0xE2 PUSH2 0x38F JUMP JUMPDEST PUSH1 0x40 MLOAD PUSH2 0xEF SWAP2 SWAP1 PUSH2 0x832 JUMP JUMPDEST PUSH1 0x40 MLOAD DUP1 SWAP2 SUB SWAP1 RETURN JUMPDEST CALLVALUE DUP1 ISZERO PUSH2 0x104 JUMPI PUSH1 0x0 DUP1 REVERT JUMPDEST POP PUSH2 0x10D PUSH2 0x395 JUMP JUMPDEST PUSH1 0x40 MLOAD PUSH2 0x11A SWAP2 SWAP1 PUSH2 0x7FC JUMP JUMPDEST PUSH1 0x40 MLOAD DUP1 SWAP2 SUB SWAP1 RETURN JUMPDEST CALLVALUE DUP1 ISZERO PUSH2 0x12F JUMPI PUSH1 0x0 DUP1 REVERT JUMPDEST POP PUSH2 0x138 PUSH2 0x3BB JUMP JUMPDEST STOP JUMPDEST CALLVALUE DUP1 ISZERO PUSH2 0x146 JUMPI PUSH1 0x0 DUP1 REVERT JUMPDEST POP PUSH2 0x14F PUSH2 0x50A JUMP JUMPDEST PUSH1 0x40 MLOAD PUSH2 0x15C SWAP2 SWAP1 PUSH2 0x817 JUMP JUMPDEST PUSH1 0x40 MLOAD DUP1 SWAP2 SUB SWAP1 RETURN JUMPDEST CALLVALUE DUP1 ISZERO PUSH2 0x171 JUMPI PUSH1 0x0 DUP1 REVERT JUMPDEST POP PUSH2 0x17A PUSH2 0x51D JUMP JUMPDEST STOP JUMPDEST PUSH2 0x184 PUSH2 0x668 JUMP JUMPDEST STOP JUMPDEST CALLVALUE DUP1 ISZERO PUSH2 0x192 JUMPI PUSH1 0x0 DUP1 REVERT JUMPDEST POP PUSH2 0x19B PUSH2 0x77F JUMP JUMPDEST PUSH1 0x40 MLOAD PUSH2 0x1A8 SWAP2 SWAP1 PUSH2 0x7E1 JUMP JUMPDEST PUSH1 0x40 MLOAD DUP1 SWAP2 SUB SWAP1 RETURN JUMPDEST PUSH1 0x1 PUSH1 0x0 SWAP1 SLOAD SWAP1 PUSH2 0x100 EXP SWAP1 DIV PUSH20 0xFFFFFFFFFFFFFFFFFFFFFFFFFFFFFFFFFFFFFFFF AND DUP2 JUMP JUMPDEST PUSH1 0x1 PUSH1 0x0 SWAP1 SLOAD SWAP1 PUSH2 0x100 EXP SWAP1 DIV PUSH20 0xFFFFFFFFFFFFFFFFFFFFFFFFFFFFFFFFFFFFFFFF AND PUSH20 0xFFFFFFFFFFFFFFFFFFFFFFFFFFFFFFFFFFFFFFFF AND CALLER PUSH20 0xFFFFFFFFFFFFFFFFFFFFFFFFFFFFFFFFFFFFFFFF AND EQ PUSH2 0x25E JUMPI PUSH1 0x40 MLOAD PUSH32 0x85D1F72600000000000000000000000000000000000000000000000000000000 DUP2 MSTORE PUSH1 0x4 ADD PUSH1 0x40 MLOAD DUP1 SWAP2 SUB SWAP1 REVERT JUMPDEST PUSH1 0x0 DUP1 PUSH1 0x2 DUP2 GT ISZERO PUSH2 0x273 JUMPI PUSH2 0x272 PUSH2 0x8C0 JUMP JUMPDEST JUMPDEST PUSH1 0x3 PUSH1 0x14 SWAP1 SLOAD SWAP1 PUSH2 0x100 EXP SWAP1 DIV PUSH1 0xFF AND PUSH1 0x2 DUP2 GT ISZERO PUSH2 0x295 JUMPI PUSH2 0x294 PUSH2 0x8C0 JUMP JUMPDEST JUMPDEST EQ PUSH2 0x2CC JUMPI PUSH1 0x40 MLOAD PUSH32 0xBAF3F0F700000000000000000000000000000000000000000000000000000000 DUP2 MSTORE PUSH1 0x4 ADD PUSH1 0x40 MLOAD DUP1 SWAP2 SUB SWAP1 REVERT JUMPDEST PUSH32 0x72C874AEFF0B183A56E2B79C71B46E1AED4DEE5E09862134B8821BA2FDDBF8BF PUSH1 0x40 MLOAD PUSH1 0x40 MLOAD DUP1 SWAP2 SUB SWAP1 LOG1 PUSH1 0x2 PUSH1 0x3 PUSH1 0x14 PUSH2 0x100 EXP DUP2 SLOAD DUP2 PUSH1 0xFF MUL NOT AND SWAP1 DUP4 PUSH1 0x2 DUP2 GT ISZERO PUSH2 0x31E JUMPI PUSH2 0x31D PUSH2 0x8C0 JUMP JUMPDEST JUMPDEST MUL OR SWAP1 SSTORE POP PUSH1 0x1 PUSH1 0x0 SWAP1 SLOAD SWAP1 PUSH2 0x100 EXP SWAP1 DIV PUSH20 0xFFFFFFFFFFFFFFFFFFFFFFFFFFFFFFFFFFFFFFFF AND PUSH20 0xFFFFFFFFFFFFFFFFFFFFFFFFFFFFFFFFFFFFFFFF AND PUSH2 0x8FC SELFBALANCE SWAP1 DUP2 ISZERO MUL SWAP1 PUSH1 0x40 MLOAD PUSH1 0x0 PUSH1 0x40 MLOAD DUP1 DUP4 SUB DUP2 DUP6 DUP9 DUP9 CALL SWAP4 POP POP POP POP ISZERO DUP1 ISZERO PUSH2 0x38B JUMPI RETURNDATASIZE PUSH1 0x0 DUP1 RETURNDATACOPY RETURNDATASIZE PUSH1 0x0 REVERT JUMPDEST POP POP JUMP JUMPDEST PUSH1 0x0 SLOAD DUP2 JUMP JUMPDEST PUSH1 0x2 PUSH1 0x0 SWAP1 SLOAD SWAP1 PUSH2 0x100 EXP SWAP1 DIV PUSH20 0xFFFFFFFFFFFFFFFFFFFFFFFFFFFFFFFFFFFFFFFF AND DUP2 JUMP JUMPDEST PUSH1 0x2 PUSH1 0x0 SWAP1 SLOAD SWAP1 PUSH2 0x100 EXP SWAP1 DIV PUSH20 0xFFFFFFFFFFFFFFFFFFFFFFFFFFFFFFFFFFFFFFFF AND PUSH20 0xFFFFFFFFFFFFFFFFFFFFFFFFFFFFFFFFFFFFFFFF AND CALLER PUSH20 0xFFFFFFFFFFFFFFFFFFFFFFFFFFFFFFFFFFFFFFFF AND EQ PUSH2 0x442 JUMPI PUSH1 0x40 MLOAD PUSH32 0x86EFBB5500000000000000000000000000000000000000000000000000000000 DUP2 MSTORE PUSH1 0x4 ADD PUSH1 0x40 MLOAD DUP1 SWAP2 SUB SWAP1 REVERT JUMPDEST PUSH1 0x0 DUP1 PUSH1 0x2 DUP2 GT ISZERO PUSH2 0x457 JUMPI PUSH2 0x456 PUSH2 0x8C0 JUMP JUMPDEST JUMPDEST PUSH1 0x3 PUSH1 0x14 SWAP1 SLOAD SWAP1 PUSH2 0x100 EXP SWAP1 DIV PUSH1 0xFF AND PUSH1 0x2 DUP2 GT ISZERO PUSH2 0x479 JUMPI PUSH2 0x478 PUSH2 0x8C0 JUMP JUMPDEST JUMPDEST EQ PUSH2 0x4B0 JUMPI PUSH1 0x40 MLOAD PUSH32 0xBAF3F0F700000000000000000000000000000000000000000000000000000000 DUP2 MSTORE PUSH1 0x4 ADD PUSH1 0x40 MLOAD DUP1 SWAP2 SUB SWAP1 REVERT JUMPDEST PUSH32 0x72C874AEFF0B183A56E2B79C71B46E1AED4DEE5E09862134B8821BA2FDDBF8BF PUSH1 0x40 MLOAD PUSH1 0x40 MLOAD DUP1 SWAP2 SUB SWAP1 LOG1 PUSH1 0x2 PUSH1 0x3 PUSH1 0x14 PUSH2 0x100 EXP DUP2 SLOAD DUP2 PUSH1 0xFF MUL NOT AND SWAP1 DUP4 PUSH1 0x2 DUP2 GT ISZERO PUSH2 0x502 JUMPI PUSH2 0x501 PUSH2 0x8C0 JUMP JUMPDEST JUMPDEST MUL OR SWAP1 SSTORE POP POP JUMP JUMPDEST PUSH1 0x3 PUSH1 0x14 SWAP1 SLOAD SWAP1 PUSH2 0x100 EXP SWAP1 DIV PUSH1 0xFF AND DUP2 JUMP JUMPDEST PUSH1 0x3 PUSH1 0x0 SWAP1 SLOAD SWAP1 PUSH2 0x100 EXP SWAP1 DIV PUSH20 0xFFFFFFFFFFFFFFFFFFFFFFFFFFFFFFFFFFFFFFFF AND PUSH20 0xFFFFFFFFFFFFFFFFFFFFFFFFFFFFFFFFFFFFFFFF AND CALLER PUSH20 0xFFFFFFFFFFFFFFFFFFFFFFFFFFFFFFFFFFFFFFFF AND EQ PUSH2 0x5A4 JUMPI PUSH1 0x40 MLOAD PUSH32 0xA73D374100000000000000000000000000000000000000000000000000000000 DUP2 MSTORE PUSH1 0x4 ADD PUSH1 0x40 MLOAD DUP1 SWAP2 SUB SWAP1 REVERT JUMPDEST PUSH32 0xA2FAE33F8C056851788AF80F3DD0E5D1A21763CDE2779F56905C10FC8517921C PUSH1 0x40 MLOAD PUSH1 0x40 MLOAD DUP1 SWAP2 SUB SWAP1 LOG1 PUSH1 0x2 PUSH1 0x3 PUSH1 0x14 PUSH2 0x100 EXP DUP2 SLOAD DUP2 PUSH1 0xFF MUL NOT AND SWAP1 DUP4 PUSH1 0x2 DUP2 GT ISZERO PUSH2 0x5F6 JUMPI PUSH2 0x5F5 PUSH2 0x8C0 JUMP JUMPDEST JUMPDEST MUL OR SWAP1 SSTORE POP PUSH1 0x1 PUSH1 0x0 SWAP1 SLOAD SWAP1 PUSH2 0x100 EXP SWAP1 DIV PUSH20 0xFFFFFFFFFFFFFFFFFFFFFFFFFFFFFFFFFFFFFFFF AND PUSH20 0xFFFFFFFFFFFFFFFFFFFFFFFFFFFFFFFFFFFFFFFF AND PUSH2 0x8FC PUSH1 0x0 SLOAD SWAP1 DUP2 ISZERO MUL SWAP1 PUSH1 0x40 MLOAD PUSH1 0x0 PUSH1 0x40 MLOAD DUP1 DUP4 SUB DUP2 DUP6 DUP9 DUP9 CALL SWAP4 POP POP POP POP ISZERO DUP1 ISZERO PUSH2 0x665 JUMPI RETURNDATASIZE PUSH1 0x0 DUP1 RETURNDATACOPY RETURNDATASIZE PUSH1 0x0 REVERT JUMPDEST POP JUMP JUMPDEST PUSH1 0x0 DUP1 PUSH1 0x2 DUP2 GT ISZERO PUSH2 0x67D JUMPI PUSH2 0x67C PUSH2 0x8C0 JUMP JUMPDEST JUMPDEST PUSH1 0x3 PUSH1 0x14 SWAP1 SLOAD SWAP1 PUSH2 0x100 EXP SWAP1 DIV PUSH1 0xFF AND PUSH1 0x2 DUP2 GT ISZERO PUSH2 0x69F JUMPI PUSH2 0x69E PUSH2 0x8C0 JUMP JUMPDEST JUMPDEST EQ PUSH2 0x6D6 JUMPI PUSH1 0x40 MLOAD PUSH32 0xBAF3F0F700000000000000000000000000000000000000000000000000000000 DUP2 MSTORE PUSH1 0x4 ADD PUSH1 0x40 MLOAD DUP1 SWAP2 SUB SWAP1 REVERT JUMPDEST PUSH1 0x0 SLOAD CALLVALUE EQ PUSH2 0x6E4 JUMPI PUSH1 0x0 DUP1 REVERT JUMPDEST PUSH32 0xD5D55C8A68912E9A110618DF8D5E2E83B8D83211C57A8DDD1203DF92885DC881 PUSH1 0x40 MLOAD PUSH1 0x40 MLOAD DUP1 SWAP2 SUB SWAP1 LOG1 CALLER PUSH1 0x2 PUSH1 0x0 PUSH2 0x100 EXP DUP2 SLOAD DUP2 PUSH20 0xFFFFFFFFFFFFFFFFFFFFFFFFFFFFFFFFFFFFFFFF MUL NOT AND SWAP1 DUP4 PUSH20 0xFFFFFFFFFFFFFFFFFFFFFFFFFFFFFFFFFFFFFFFF AND MUL OR SWAP1 SSTORE POP PUSH1 0x1 PUSH1 0x3 PUSH1 0x14 PUSH2 0x100 EXP DUP2 SLOAD DUP2 PUSH1 0xFF MUL NOT AND SWAP1 DUP4 PUSH1 0x2 DUP2 GT ISZERO PUSH2 0x777 JUMPI PUSH2 0x776 PUSH2 0x8C0 JUMP JUMPDEST JUMPDEST MUL OR SWAP1 SSTORE POP POP JUMP JUMPDEST PUSH1 0x3 PUSH1 0x0 SWAP1 SLOAD SWAP1 PUSH2 0x100 EXP SWAP1 DIV PUSH20 0xFFFFFFFFFFFFFFFFFFFFFFFFFFFFFFFFFFFFFFFF AND DUP2 JUMP JUMPDEST PUSH2 0x7AE DUP2 PUSH2 0x85F JUMP JUMPDEST DUP3 MSTORE POP POP JUMP JUMPDEST PUSH2 0x7BD DUP2 PUSH2 0x84D JUMP JUMPDEST DUP3 MSTORE POP POP JUMP JUMPDEST PUSH2 0x7CC DUP2 PUSH2 0x8AE JUMP JUMPDEST DUP3 MSTORE POP POP JUMP JUMPDEST PUSH2 0x7DB DUP2 PUSH2 0x8A4 JUMP JUMPDEST DUP3 MSTORE POP POP JUMP JUMPDEST PUSH1 0x0 PUSH1 0x20 DUP3 ADD SWAP1 POP PUSH2 0x7F6 PUSH1 0x0 DUP4 ADD DUP5 PUSH2 0x7B4 JUMP JUMPDEST SWAP3 SWAP2 POP POP JUMP JUMPDEST PUSH1 0x0 PUSH1 0x20 DUP3 ADD SWAP1 POP PUSH2 0x811 PUSH1 0x0 DUP4 ADD DUP5 PUSH2 0x7A5 JUMP JUMPDEST SWAP3 SWAP2 POP POP JUMP JUMPDEST PUSH1 0x0 PUSH1 0x20 DUP3 ADD SWAP1 POP PUSH2 0x82C PUSH1 0x0 DUP4 ADD DUP5 PUSH2 0x7C3 JUMP JUMPDEST SWAP3 SWAP2 POP POP JUMP JUMPDEST PUSH1 0x0 PUSH1 0x20 DUP3 ADD SWAP1 POP PUSH2 0x847 PUSH1 0x0 DUP4 ADD DUP5 PUSH2 0x7D2 JUMP JUMPDEST SWAP3 SWAP2 POP POP JUMP JUMPDEST PUSH1 0x0 PUSH2 0x858 DUP3 PUSH2 0x884 JUMP JUMPDEST SWAP1 POP SWAP2 SWAP1 POP JUMP JUMPDEST PUSH1 0x0 PUSH2 0x86A DUP3 PUSH2 0x884 JUMP JUMPDEST SWAP1 POP SWAP2 SWAP1 POP JUMP JUMPDEST PUSH1 0x0 DUP2 SWAP1 POP PUSH2 0x87F DUP3 PUSH2 0x8EF JUMP JUMPDEST SWAP2 SWAP1 POP JUMP JUMPDEST PUSH1 0x0 PUSH20 0xFFFFFFFFFFFFFFFFFFFFFFFFFFFFFFFFFFFFFFFF DUP3 AND SWAP1 POP SWAP2 SWAP1 POP JUMP JUMPDEST PUSH1 0x0 DUP2 SWAP1 POP SWAP2 SWAP1 POP JUMP JUMPDEST PUSH1 0x0 PUSH2 0x8B9 DUP3 PUSH2 0x871 JUMP JUMPDEST SWAP1 POP SWAP2 SWAP1 POP JUMP JUMPDEST PUSH32 0x4E487B7100000000000000000000000000000000000000000000000000000000 PUSH1 0x0 MSTORE PUSH1 0x21 PUSH1 0x4 MSTORE PUSH1 0x24 PUSH1 0x0 REVERT JUMPDEST PUSH1 0x3 DUP2 LT PUSH2 0x900 JUMPI PUSH2 0x8FF PUSH2 0x8C0 JUMP JUMPDEST JUMPDEST POP JUMP INVALID LOG2 PUSH5 0x6970667358 0x22 SLT KECCAK256 0xC SWAP14 0xE8 0xEB 0xC4 SGT PUSH15 0x525883D726DB74DC5300EFB92965F6 SWAP13 0xC PUSH15 0x6D187520D7593C64736F6C63430008 SMOD STOP CALLER LOG2 PUSH5 0x6970667358 0x22 SLT KECCAK256 PUSH9 0x7EC3C374FD1D333293 0x25 MSIZE PUSH20 0x396472C39A26AB21BCB6D792B574F9C65C536A64 PUSH20 0x6F6C634300080700330000000000000000000000 "
    },
    "gasEstimates": {
      "creation": {
        "codeDepositCost": "814600",
        "executionCost": "851",
        "totalCost": "815451"
      },
      "external": {
        "createRequest(uint256,address)": "infinite",
        "deployedRequests(uint256)": "5064",
        "getDeployedRequests()": "infinite"
      }
    },
    "methodIdentifiers": {
      "createRequest(uint256,address)": "2f51e58c",
      "deployedRequests(uint256)": "f832f94a",
      "getDeployedRequests()": "4005ec3d"
    }
  },
  "storageLayout": {
    "storage": [
      {
        "astId": 5,
        "contract": "ReceivePayment.sol:RequestFactory",
        "label": "deployedRequests",
        "offset": 0,
        "slot": "0",
        "type": "t_array(t_contract(ReceivePayment)244)dyn_storage"
      }
    ],
    "types": {
      "t_array(t_contract(ReceivePayment)244)dyn_storage": {
        "base": "t_contract(ReceivePayment)244",
        "encoding": "dynamic_array",
        "label": "contract ReceivePayment[]",
        "numberOfBytes": "32"
      },
      "t_contract(ReceivePayment)244": {
        "encoding": "inplace",
        "label": "contract ReceivePayment",
        "numberOfBytes": "20"
      }
    }
  },
  "userdoc": {
    "kind": "user",
    "methods": {},
    "version": 1
  }
}